{"abi":[{"type":"constructor","inputs":[{"name":"subId","type":"uint64","internalType":"uint64"},{"name":"propertyDataSource","type":"string","internalType":"string"},{"name":"rentCollectionSource","type":"string","internalType":"string"},{"name":"functionsRouter","type":"address","internalType":"address"},{"name":"donId","type":"bytes32","internalType":"bytes32"},{"name":"ethPriceFeed","type":"address","internalType":"address"},{"name":"usdcPriceFeed","type":"address","internalType":"address"},{"name":"redemptionCoin","type":"address","internalType":"address"},{"name":"secretVersion","type":"uint64","internalType":"uint64"},{"name":"secretSlot","type":"uint8","internalType":"uint8"}],"stateMutability":"nonpayable"},{"type":"function","name":"ADDITIONAL_FEED_PRECISION","inputs":[],"outputs":[{"name":"","type":"uint256","internalType":"uint256"}],"stateMutability":"view"},{"type":"function","name":"COLLATERAL_PRECISION","inputs":[],"outputs":[{"name":"","type":"uint256","internalType":"uint256"}],"stateMutability":"view"},{"type":"function","name":"COLLATERAL_RATIO","inputs":[],"outputs":[{"name":"","type":"uint256","internalType":"uint256"}],"stateMutability":"view"},{"type":"function","name":"MINIMUM_INVESTMENT","inputs":[],"outputs":[{"name":"","type":"uint256","internalType":"uint256"}],"stateMutability":"view"},{"type":"function","name":"PLATFORM_FEE","inputs":[],"outputs":[{"name":"","type":"uint256","internalType":"uint256"}],"stateMutability":"view"},{"type":"function","name":"PRECISION","inputs":[],"outputs":[{"name":"","type":"uint256","internalType":"uint256"}],"stateMutability":"view"},{"type":"function","name":"YIELD_PRECISION","inputs":[],"outputs":[{"name":"","type":"uint256","internalType":"uint256"}],"stateMutability":"view"},{"type":"function","name":"acceptOwnership","inputs":[],"outputs":[],"stateMutability":"nonpayable"},{"type":"function","name":"activeProperties","inputs":[{"name":"","type":"uint256","internalType":"uint256"}],"outputs":[{"name":"","type":"address","internalType":"address"}],"stateMutability":"view"},{"type":"function","name":"allowance","inputs":[{"name":"owner","type":"address","internalType":"address"},{"name":"spender","type":"address","internalType":"address"}],"outputs":[{"name":"","type":"uint256","internalType":"uint256"}],"stateMutability":"view"},{"type":"function","name":"approve","inputs":[{"name":"spender","type":"address","internalType":"address"},{"name":"value","type":"uint256","internalType":"uint256"}],"outputs":[{"name":"","type":"bool","internalType":"bool"}],"stateMutability":"nonpayable"},{"type":"function","name":"balanceOf","inputs":[{"name":"account","type":"address","internalType":"address"}],"outputs":[{"name":"","type":"uint256","internalType":"uint256"}],"stateMutability":"view"},{"type":"function","name":"decimals","inputs":[],"outputs":[{"name":"","type":"uint8","internalType":"uint8"}],"stateMutability":"view"},{"type":"function","name":"getActivePropertiesCount","inputs":[],"outputs":[{"name":"","type":"uint256","internalType":"uint256"}],"stateMutability":"view"},{"type":"function","name":"getActiveProperty","inputs":[{"name":"index","type":"uint256","internalType":"uint256"}],"outputs":[{"name":"","type":"address","internalType":"address"}],"stateMutability":"view"},{"type":"function","name":"getCurrentPropertyValue","inputs":[],"outputs":[{"name":"","type":"uint256","internalType":"uint256"}],"stateMutability":"view"},{"type":"function","name":"getEthAmountFromUsd","inputs":[{"name":"usdAmount","type":"uint256","internalType":"uint256"}],"outputs":[{"name":"","type":"uint256","internalType":"uint256"}],"stateMutability":"view"},{"type":"function","name":"getProperty","inputs":[{"name":"propertyAddr","type":"address","internalType":"address"}],"outputs":[{"name":"","type":"tuple","internalType":"struct PropertyToken.Property","components":[{"name":"propertyAddress","type":"string","internalType":"string"},{"name":"propertyId","type":"string","internalType":"string"},{"name":"propertyType","type":"uint8","internalType":"enum PropertyToken.PropertyType"},{"name":"totalTokens","type":"uint256","internalType":"uint256"},{"name":"initialValue","type":"uint256","internalType":"uint256"},{"name":"currentValue","type":"uint256","internalType":"uint256"},{"name":"expectedRentalYield","type":"uint256","internalType":"uint256"},{"name":"monthlyRent","type":"uint256","internalType":"uint256"},{"name":"lastValuationUpdate","type":"uint256","internalType":"uint256"},{"name":"lastRentCollection","type":"uint256","internalType":"uint256"},{"name":"isActive","type":"bool","internalType":"bool"},{"name":"propertyManager","type":"address","internalType":"address"}]}],"stateMutability":"view"},{"type":"function","name":"getPropertyCurrentValue","inputs":[{"name":"propertyAddr","type":"address","internalType":"address"}],"outputs":[{"name":"","type":"uint256","internalType":"uint256"}],"stateMutability":"view"},{"type":"function","name":"getRequiredCollateral","inputs":[{"name":"investmentValueUsd","type":"uint256","internalType":"uint256"}],"outputs":[{"name":"","type":"uint256","internalType":"uint256"}],"stateMutability":"view"},{"type":"function","name":"getUsdAmountFromEth","inputs":[{"name":"ethAmount","type":"uint256","internalType":"uint256"}],"outputs":[{"name":"","type":"uint256","internalType":"uint256"}],"stateMutability":"view"},{"type":"function","name":"getUsdValueOfPropertyTokens","inputs":[{"name":"propertyAddr","type":"address","internalType":"address"},{"name":"tokenAmount","type":"uint256","internalType":"uint256"}],"outputs":[{"name":"","type":"uint256","internalType":"uint256"}],"stateMutability":"view"},{"type":"function","name":"getUserPropertyBalance","inputs":[{"name":"user","type":"address","internalType":"address"},{"name":"propertyAddr","type":"address","internalType":"address"}],"outputs":[{"name":"","type":"uint256","internalType":"uint256"}],"stateMutability":"view"},{"type":"function","name":"handleOracleFulfillment","inputs":[{"name":"requestId","type":"bytes32","internalType":"bytes32"},{"name":"response","type":"bytes","internalType":"bytes"},{"name":"err","type":"bytes","internalType":"bytes"}],"outputs":[],"stateMutability":"nonpayable"},{"type":"function","name":"i_ethUsdFeed","inputs":[],"outputs":[{"name":"","type":"address","internalType":"address"}],"stateMutability":"view"},{"type":"function","name":"i_redemptionCoin","inputs":[],"outputs":[{"name":"","type":"address","internalType":"address"}],"stateMutability":"view"},{"type":"function","name":"i_usdcUsdFeed","inputs":[],"outputs":[{"name":"","type":"address","internalType":"address"}],"stateMutability":"view"},{"type":"function","name":"investInProperty","inputs":[{"name":"propertyAddr","type":"address","internalType":"address"},{"name":"tokenAmount","type":"uint256","internalType":"uint256"}],"outputs":[],"stateMutability":"payable"},{"type":"function","name":"name","inputs":[],"outputs":[{"name":"","type":"string","internalType":"string"}],"stateMutability":"view"},{"type":"function","name":"owner","inputs":[],"outputs":[{"name":"","type":"address","internalType":"address"}],"stateMutability":"view"},{"type":"function","name":"pause","inputs":[],"outputs":[],"stateMutability":"nonpayable"},{"type":"function","name":"paused","inputs":[],"outputs":[{"name":"","type":"bool","internalType":"bool"}],"stateMutability":"view"},{"type":"function","name":"properties","inputs":[{"name":"","type":"address","internalType":"address"}],"outputs":[{"name":"propertyAddress","type":"string","internalType":"string"},{"name":"propertyId","type":"string","internalType":"string"},{"name":"propertyType","type":"uint8","internalType":"enum PropertyToken.PropertyType"},{"name":"totalTokens","type":"uint256","internalType":"uint256"},{"name":"initialValue","type":"uint256","internalType":"uint256"},{"name":"currentValue","type":"uint256","internalType":"uint256"},{"name":"expectedRentalYield","type":"uint256","internalType":"uint256"},{"name":"monthlyRent","type":"uint256","internalType":"uint256"},{"name":"lastValuationUpdate","type":"uint256","internalType":"uint256"},{"name":"lastRentCollection","type":"uint256","internalType":"uint256"},{"name":"isActive","type":"bool","internalType":"bool"},{"name":"propertyManager","type":"address","internalType":"address"}],"stateMutability":"view"},{"type":"function","name":"propertyRentals","inputs":[{"name":"","type":"address","internalType":"address"}],"outputs":[{"name":"totalRentCollected","type":"uint256","internalType":"uint256"},{"name":"availableForDistribution","type":"uint256","internalType":"uint256"},{"name":"lastDistributionDate","type":"uint256","internalType":"uint256"},{"name":"occupancyRate","type":"uint256","internalType":"uint256"}],"stateMutability":"view"},{"type":"function","name":"registerProperty","inputs":[{"name":"propertyAddr","type":"address","internalType":"address"},{"name":"propertyId","type":"string","internalType":"string"},{"name":"physicalAddress","type":"string","internalType":"string"},{"name":"propertyType","type":"uint8","internalType":"enum PropertyToken.PropertyType"},{"name":"initialValue","type":"uint256","internalType":"uint256"},{"name":"totalTokens","type":"uint256","internalType":"uint256"},{"name":"expectedYield","type":"uint256","internalType":"uint256"},{"name":"monthlyRent","type":"uint256","internalType":"uint256"},{"name":"propertyManager","type":"address","internalType":"address"}],"outputs":[],"stateMutability":"nonpayable"},{"type":"function","name":"requestPropertyValuation","inputs":[{"name":"propertyAddr","type":"address","internalType":"address"}],"outputs":[{"name":"requestId","type":"bytes32","internalType":"bytes32"}],"stateMutability":"nonpayable"},{"type":"function","name":"requestRentCollection","inputs":[{"name":"propertyAddr","type":"address","internalType":"address"}],"outputs":[{"name":"requestId","type":"bytes32","internalType":"bytes32"}],"stateMutability":"nonpayable"},{"type":"function","name":"setSecretSlot","inputs":[{"name":"secretSlot","type":"uint8","internalType":"uint8"}],"outputs":[],"stateMutability":"nonpayable"},{"type":"function","name":"setSecretVersion","inputs":[{"name":"secretVersion","type":"uint64","internalType":"uint64"}],"outputs":[],"stateMutability":"nonpayable"},{"type":"function","name":"symbol","inputs":[],"outputs":[{"name":"","type":"string","internalType":"string"}],"stateMutability":"view"},{"type":"function","name":"totalProperties","inputs":[],"outputs":[{"name":"","type":"uint256","internalType":"uint256"}],"stateMutability":"view"},{"type":"function","name":"totalSupply","inputs":[],"outputs":[{"name":"","type":"uint256","internalType":"uint256"}],"stateMutability":"view"},{"type":"function","name":"transfer","inputs":[{"name":"to","type":"address","internalType":"address"},{"name":"value","type":"uint256","internalType":"uint256"}],"outputs":[{"name":"","type":"bool","internalType":"bool"}],"stateMutability":"nonpayable"},{"type":"function","name":"transferFrom","inputs":[{"name":"from","type":"address","internalType":"address"},{"name":"to","type":"address","internalType":"address"},{"name":"value","type":"uint256","internalType":"uint256"}],"outputs":[{"name":"","type":"bool","internalType":"bool"}],"stateMutability":"nonpayable"},{"type":"function","name":"transferOwnership","inputs":[{"name":"to","type":"address","internalType":"address"}],"outputs":[],"stateMutability":"nonpayable"},{"type":"function","name":"unpause","inputs":[],"outputs":[],"stateMutability":"nonpayable"},{"type":"function","name":"userCollateral","inputs":[{"name":"","type":"address","internalType":"address"}],"outputs":[{"name":"","type":"uint256","internalType":"uint256"}],"stateMutability":"view"},{"type":"function","name":"userPropertyTokens","inputs":[{"name":"","type":"address","internalType":"address"},{"name":"","type":"address","internalType":"address"}],"outputs":[{"name":"","type":"uint256","internalType":"uint256"}],"stateMutability":"view"},{"type":"function","name":"userWithdrawableRent","inputs":[{"name":"","type":"address","internalType":"address"}],"outputs":[{"name":"","type":"uint256","internalType":"uint256"}],"stateMutability":"view"},{"type":"event","name":"Approval","inputs":[{"name":"owner","type":"address","indexed":true,"internalType":"address"},{"name":"spender","type":"address","indexed":true,"internalType":"address"},{"name":"value","type":"uint256","indexed":false,"internalType":"uint256"}],"anonymous":false},{"type":"event","name":"ChainlinkResponse","inputs":[{"name":"requestId","type":"bytes32","indexed":true,"internalType":"bytes32"},{"name":"requestType","type":"uint8","indexed":false,"internalType":"enum PropertyToken.RequestType"},{"name":"response","type":"bytes","indexed":false,"internalType":"bytes"},{"name":"err","type":"bytes","indexed":false,"internalType":"bytes"}],"anonymous":false},{"type":"event","name":"OwnershipTransferRequested","inputs":[{"name":"from","type":"address","indexed":true,"internalType":"address"},{"name":"to","type":"address","indexed":true,"internalType":"address"}],"anonymous":false},{"type":"event","name":"OwnershipTransferred","inputs":[{"name":"from","type":"address","indexed":true,"internalType":"address"},{"name":"to","type":"address","indexed":true,"internalType":"address"}],"anonymous":false},{"type":"event","name":"Paused","inputs":[{"name":"account","type":"address","indexed":false,"internalType":"address"}],"anonymous":false},{"type":"event","name":"PropertyRegistered","inputs":[{"name":"propertyAddress","type":"address","indexed":true,"internalType":"address"},{"name":"propertyId","type":"string","indexed":false,"internalType":"string"},{"name":"propertyType","type":"uint8","indexed":false,"internalType":"enum PropertyToken.PropertyType"},{"name":"initialValue","type":"uint256","indexed":false,"internalType":"uint256"},{"name":"totalTokens","type":"uint256","indexed":false,"internalType":"uint256"}],"anonymous":false},{"type":"event","name":"PropertyTokensMinted","inputs":[{"name":"user","type":"address","indexed":true,"internalType":"address"},{"name":"property","type":"address","indexed":true,"internalType":"address"},{"name":"amount","type":"uint256","indexed":false,"internalType":"uint256"},{"name":"collateralUsed","type":"uint256","indexed":false,"internalType":"uint256"}],"anonymous":false},{"type":"event","name":"PropertyTokensRedeemed","inputs":[{"name":"user","type":"address","indexed":true,"internalType":"address"},{"name":"property","type":"address","indexed":true,"internalType":"address"},{"name":"amount","type":"uint256","indexed":false,"internalType":"uint256"},{"name":"collateralReturned","type":"uint256","indexed":false,"internalType":"uint256"}],"anonymous":false},{"type":"event","name":"PropertyValuationUpdated","inputs":[{"name":"property","type":"address","indexed":true,"internalType":"address"},{"name":"oldValue","type":"uint256","indexed":false,"internalType":"uint256"},{"name":"newValue","type":"uint256","indexed":false,"internalType":"uint256"},{"name":"timestamp","type":"uint256","indexed":false,"internalType":"uint256"}],"anonymous":false},{"type":"event","name":"RentCollected","inputs":[{"name":"property","type":"address","indexed":true,"internalType":"address"},{"name":"amount","type":"uint256","indexed":false,"internalType":"uint256"},{"name":"timestamp","type":"uint256","indexed":false,"internalType":"uint256"}],"anonymous":false},{"type":"event","name":"RentDistributed","inputs":[{"name":"user","type":"address","indexed":true,"internalType":"address"},{"name":"property","type":"address","indexed":true,"internalType":"address"},{"name":"amount","type":"uint256","indexed":false,"internalType":"uint256"}],"anonymous":false},{"type":"event","name":"RequestFulfilled","inputs":[{"name":"id","type":"bytes32","indexed":true,"internalType":"bytes32"}],"anonymous":false},{"type":"event","name":"RequestSent","inputs":[{"name":"id","type":"bytes32","indexed":true,"internalType":"bytes32"}],"anonymous":false},{"type":"event","name":"Transfer","inputs":[{"name":"from","type":"address","indexed":true,"internalType":"address"},{"name":"to","type":"address","indexed":true,"internalType":"address"},{"name":"value","type":"uint256","indexed":false,"internalType":"uint256"}],"anonymous":false},{"type":"event","name":"Unpaused","inputs":[{"name":"account","type":"address","indexed":false,"internalType":"address"}],"anonymous":false},{"type":"error","name":"ERC20InsufficientAllowance","inputs":[{"name":"spender","type":"address","internalType":"address"},{"name":"allowance","type":"uint256","internalType":"uint256"},{"name":"needed","type":"uint256","internalType":"uint256"}]},{"type":"error","name":"ERC20InsufficientBalance","inputs":[{"name":"sender","type":"address","internalType":"address"},{"name":"balance","type":"uint256","internalType":"uint256"},{"name":"needed","type":"uint256","internalType":"uint256"}]},{"type":"error","name":"ERC20InvalidApprover","inputs":[{"name":"approver","type":"address","internalType":"address"}]},{"type":"error","name":"ERC20InvalidReceiver","inputs":[{"name":"receiver","type":"address","internalType":"address"}]},{"type":"error","name":"ERC20InvalidSender","inputs":[{"name":"sender","type":"address","internalType":"address"}]},{"type":"error","name":"ERC20InvalidSpender","inputs":[{"name":"spender","type":"address","internalType":"address"}]},{"type":"error","name":"EmptyArgs","inputs":[]},{"type":"error","name":"EmptySource","inputs":[]},{"type":"error","name":"EnforcedPause","inputs":[]},{"type":"error","name":"ExpectedPause","inputs":[]},{"type":"error","name":"NoInlineSecrets","inputs":[]},{"type":"error","name":"OnlyRouterCanFulfill","inputs":[]},{"type":"error","name":"PropertyToken__BelowMinimumInvestment","inputs":[]},{"type":"error","name":"PropertyToken__InsufficientRentBalance","inputs":[]},{"type":"error","name":"PropertyToken__InvalidPropertyType","inputs":[]},{"type":"error","name":"PropertyToken__NotEnoughCollateral","inputs":[]},{"type":"error","name":"PropertyToken__OnlyPropertyManager","inputs":[]},{"type":"error","name":"PropertyToken__PropertyNotActive","inputs":[]},{"type":"error","name":"PropertyToken__RentDistributionFailed","inputs":[]},{"type":"error","name":"ReentrancyGuardReentrantCall","inputs":[]},{"type":"error","name":"UnexpectedRequestID","inputs":[{"name":"requestId","type":"bytes32","internalType":"bytes32"}]}],"bytecode":{"object":"0x6101206040523461076f57613f298038038061001a81610773565b9283398101906101408183031261076f5761003481610798565b60208201516001600160401b03811161076f57836100539184016107ac565b604083015190936001600160401b03821161076f576100739184016107ac565b90610080606084016107fd565b608084015161009160a086016107fd565b61009d60c087016107fd565b916100aa60e088016107fd565b936101206100bb6101008a01610798565b9801519660ff8816880361076f576040996100d58b610773565b92601484527f4452454d532050726f706572747920546f6b656e00000000000000000000000060208501526101098c610773565b60058152644452454d5360d81b60208201526001600160a01b03909116608081905293331561072b575f80546001600160a01b031916331790558051906001600160401b0382116104795760055490600182811c92168015610721575b602083101461045b5781601f8493116106d0575b50602090601f831160011461066a575f9261065f575b50508160011b915f199060031b1c1916176005555b8051906001600160401b0382116104795760065490600182811c92168015610655575b602083101461045b5781601f8493116105e7575b50602090601f8311600114610581575f92610576575b50508160011b915f199060031b1c1916176006555b6007805460ff1916905560016008558051906001600160401b03821161047957600a5490600182811c9216801561056c575b602083101461045b5781601f8493116104fe575b50602090601f8311600114610498575f9261048d575b50508160011b915f199060031b1c191617600a555b8051906001600160401b03821161047957600b5490600182811c9216801561046f575b602083101461045b5781601f8493116103ed575b50602090601f8311600114610387575f9261037c575b50508160011b915f199060031b1c191617600b555b600980546001600160a01b031916919091179055600c5560c05260e0526101005260a052600d80546001600160481b0319166001600160401b039093169290921790831b68ff00000000000000001617905551613717908161081282396080518181816108900152612a70015260a0518161059c015260c051818181610ec901528181610fd9015261244b015260e05181611901015261010051816119600152f35b015190505f806102c5565b600b5f9081528281209350601f198516905b8181106103d557509084600195949392106103bd575b505050811b01600b556102da565b01515f1960f88460031b161c191690555f80806103af565b92936020600181928786015181550195019301610399565b600b5f529091507f0175b7a638427703f0dbe7bb9bbf987a2551717b34e79f33b5b1008d1fa01db9601f840160051c81019160208510610451575b90601f859493920160051c01905b81811061044357506102af565b5f8155849350600101610436565b9091508190610428565b634e487b7160e01b5f52602260045260245ffd5b91607f169161029b565b634e487b7160e01b5f52604160045260245ffd5b015190505f80610263565b600a5f9081528281209350601f198516905b8181106104e657509084600195949392106104ce575b505050811b01600a55610278565b01515f1960f88460031b161c191690555f80806104c0565b929360206001819287860151815501950193016104aa565b600a5f529091507fc65a7bb8d6351c1cf70c95a316cc6a92839c986682d98bc35f958f4883f9d2a8601f840160051c81019160208510610562575b90601f859493920160051c01905b818110610554575061024d565b5f8155849350600101610547565b9091508190610539565b91607f1691610239565b015190505f806101f2565b60065f9081528281209350601f198516905b8181106105cf57509084600195949392106105b7575b505050811b01600655610207565b01515f1960f88460031b161c191690555f80806105a9565b92936020600181928786015181550195019301610593565b60065f529091507ff652222313e28459528d920b65115c16c04f3efc82aaedc97be59f3f377c0d3f601f840160051c8101916020851061064b575b90601f859493920160051c01905b81811061063d57506101dc565b5f8155849350600101610630565b9091508190610622565b91607f16916101c8565b015190505f80610190565b60055f9081528281209350601f198516905b8181106106b857509084600195949392106106a0575b505050811b016005556101a5565b01515f1960f88460031b161c191690555f8080610692565b9293602060018192878601518155019501930161067c565b90915060055f5260205f20601f840160051c81019160208510610717575b90601f859493920160051c01905b818110610709575061017a565b5f81558493506001016106fc565b90915081906106ee565b91607f1691610166565b8c5162461bcd60e51b815260206004820152601860248201527f43616e6e6f7420736574206f776e657220746f207a65726f00000000000000006044820152606490fd5b5f80fd5b6040519190601f01601f191682016001600160401b0381118382101761047957604052565b51906001600160401b038216820361076f57565b81601f8201121561076f578051906001600160401b038211610479576107db601f8301601f1916602001610773565b928284526020838301011161076f57815f9260208093018386015e8301015290565b51906001600160a01b038216820361076f5756fe60806040526004361015610011575f80fd5b5f3560e01c806306fdde031461031a57806309100b2914610315578063095ea7b31461031057806309cd4e261461030b5780630b3bce20146103065780630ca761751461030157806318160ddd146102fc5780631b93b265146102f757806323b872dd146102f257806325ec77d7146102ed578063313ce567146102e8578063328f7c48146102e357806334fbc9a1146102e357806335f5d702146102de5780633cad20d1146102d95780633f4ba83a146102d4578063504fe0b4146102cf57806351995489146102ca57806353a63130146102c55780635752fe37146102705780635c975abb146102c0578063603ddf11146102bb57806370a08231146102b6578063749e5d4d146102b157806379ba5097146102ac5780638456cb59146102a75780638a4660fe146102a25780638da5cb5b1461029d578063952ba6d41461029857806395d89b4114610293578063a0da12a51461028e578063a8b268de14610289578063a9059cbb14610284578063a9d67d211461027f578063aaf5eb681461027a578063bf0524f314610275578063bfe4f21d14610270578063c81c4b261461026b578063d53c886e14610266578063d917d55214610261578063d9e69a051461025c578063dac42a7214610257578063dd62ed3e14610252578063f2fde38b1461024d578063f3d88a9a14610248578063f69f1e4a14610243578063fa139f981461023e578063fe5b01e4146102395763ffd7db5614610234575f80fd5b611bd3565b611b9b565b611b58565b611b20565b611a98565b6119dd565b61198f565b61194b565b611930565b6118ec565b6118c5565b61186b565b61117e565b61184f565b61182d565b6116dc565b6116ab565b611651565b611601565b61155c565b6114c3565b6113de565b6113bc565b611363565b6112a6565b61124c565b611214565b6111f7565b6111d5565b6110a7565b610fb1565b610f5e565b610ef8565b610eb4565b610e9a565b610e7f565b610e64565b610dbf565b610a4f565b610a0d565b6109f0565b61083c565b61072e565b610708565b61064f565b610478565b610357565b805180835260209291819084018484015e5f828201840152601f01601f1916010190565b90602061035492818152019061031f565b90565b34610431575f366003190112610431576040515f60055461037781610aef565b808452906001811690811561040d57506001146103af575b6103ab8361039f8185038261079b565b60405191829182610343565b0390f35b60055f9081527f036b6384b5eca791c62761152d0c79bb0604c104a5fb6f4eb0703f3154bb3db0939250905b8082106103f35750909150810160200161039f61038f565b9192600181602092548385880101520191019092916103db565b60ff191660208086019190915291151560051b8401909101915061039f905061038f565b5f80fd5b600435906001600160a01b038216820361043157565b602435906001600160a01b038216820361043157565b61010435906001600160a01b038216820361043157565b3461043157602036600319011261043157610491610435565b6001600160a01b0381165f908152600e60205260409020600a81015460ff8116156104bb565b1590565b610640576104dc9060081c6001600160a01b03165b6001600160a01b031690565b33141580610623575b610614576106046103ab926105ed6105c1610596610501611bf1565b61051261050c610b27565b82612d78565b61053d600d546105366105298260ff9060401c1690565b916001600160401b031690565b9083612500565b610591600761054a611c37565b9861055760018201610c71565b6105608b611cab565b5261056a8a611cab565b50019761057789546125b7565b61058082611cb8565b5261058a81611cb8565b508261270d565b612842565b600c54907f000000000000000000000000000000000000000000000000000000000000000090612a1a565b9354916105cc6107bc565b928352336020840152600360408401525b6001600160a01b03166060830152565b6105ff835f52600f60205260405f2090565b611ce6565b6040519081529081906020820190565b6360019fb560e11b5f5260045ffd5b505f54610638906001600160a01b03166104d0565b3314156104e5565b63793a92c760e11b5f5260045ffd5b3461043157604036600319011261043157610668610435565b60243533156106f5576001600160a01b0382169182156106e2576106a88291335f52600360205260405f209060018060a01b03165f5260205260405f2090565b5560405190815233907f8c5be1e5ebec7d5bd14f71427d1e84f3dd0314c0f7b2291e5b200ac8c7c3b92590602090a3602060405160018152f35b634a1406b160e11b5f525f60045260245ffd5b63e602df0560e01b5f525f60045260245ffd5b34610431576020366003190112610431576020610726600435611e04565b604051908152f35b34610431575f366003190112610431576020601554604051908152f35b634e487b7160e01b5f52604160045260245ffd5b61018081019081106001600160401b0382111761077b57604052565b61074b565b604081019081106001600160401b0382111761077b57604052565b90601f801991011681019081106001600160401b0382111761077b57604052565b604051906107cb60808361079b565b565b604051906107cb6101808361079b565b6001600160401b03811161077b57601f01601f191660200190565b81601f8201121561043157602081359101610812826107dd565b92610820604051948561079b565b8284528282011161043157815f92602092838601378301015290565b34610431576060366003190112610431576004356024356001600160401b0381116104315761086f9036906004016107f8565b6044356001600160401b0381116104315761088e9036906004016107f8565b7f00000000000000000000000000000000000000000000000000000000000000006001600160a01b031633036109e15782917fe13f3a5d82d6337190a5408cba3dd174b46b893d72747233a975d43d6f62ca6d91835f52600f60205261094c6108f960405f20612b00565b604081019083856002845161090d81611cdc565b61091681611cdc565b0361099b576060929092015161093592906001600160a01b03166130eb565b519161094083611cdc565b60405193849384612b66565b0390a2610975610964825f52600f60205260405f2090565b60025f918281558260018201550155565b7f85e1543bf2f84fe80c6badbce3648c8539ad1df4d2b3d822938ca0538be727e65f80a2005b600384516109a881611cdc565b6109b181611cdc565b146109bf575b505050610935565b606092909201516109d992906001600160a01b031661303c565b5f83856109b7565b63c6829f8360e01b5f5260045ffd5b34610431575f366003190112610431576020600454604051908152f35b34610431576020366003190112610431576004356001600160401b03811680910361043157610a3a612b9b565b6001600160401b0319600d541617600d555f80f35b3461043157606036600319011261043157610a68610435565b610a7061044b565b6001600160a01b0382165f90815260036020908152604080832033845290915290205491604435919060018401610ab8575b610aac9350612bec565b60405160018152602090f35b828410610ad457610acf83610aac95033383612ff6565b610aa2565b8284637dc7a0d960e11b5f523360045260245260445260645ffd5b90600182811c92168015610b1d575b6020831014610b0957565b634e487b7160e01b5f52602260045260245ffd5b91607f1691610afe565b604051905f82600b5491610b3a83610aef565b8083529260018116908115610bbd5750600114610b5e575b6107cb9250038361079b565b50600b5f90815290917f0175b7a638427703f0dbe7bb9bbf987a2551717b34e79f33b5b1008d1fa01db95b818310610ba15750509060206107cb92820101610b52565b6020919350806001915483858901015201910190918492610b89565b602092506107cb94915060ff191682840152151560051b820101610b52565b604051905f82600a5491610bef83610aef565b8083529260018116908115610bbd5750600114610c12576107cb9250038361079b565b50600a5f90815290917fc65a7bb8d6351c1cf70c95a316cc6a92839c986682d98bc35f958f4883f9d2a85b818310610c555750509060206107cb92820101610b52565b6020919350806001915483858901015201910190918492610c3d565b9060405191825f825492610c8484610aef565b8084529360018116908115610ced5750600114610ca9575b506107cb9250038361079b565b90505f9291925260205f20905f915b818310610cd15750509060206107cb928201015f610c9c565b6020919350806001915483858901015201910190918492610cb8565b9050602092506107cb94915060ff191682840152151560051b8201015f610c9c565b634e487b7160e01b5f52602160045260245ffd5b60081115610d2d57565b610d0f565b906008821015610d2d5752565b9a979491610d798c949e9d9a9794610d8492610d6b6101609e9b9895610180845261018084019061031f565b91602081840391015261031f565b9d60408d0190610d32565b60608b015260808a015260a089015260c088015260e087015261010086015261012085015215156101408401526001600160a01b0316910152565b34610431576020366003190112610431576001600160a01b03610de0610435565b165f52600e60205260405f20610df581610c71565b6103ab610e0460018401610c71565b9260ff60028201541690600381015490600481015460058201546006830154600784015491600885015493600a600987015496015496610e57610e478960ff1690565b9860081c6001600160a01b031690565b986040519c8d9c8d610d3f565b34610431575f36600319011261043157602060405160128152f35b34610431575f36600319011261043157602060405160648152f35b34610431575f366003190112610431576020610726611e3e565b34610431575f366003190112610431576040517f00000000000000000000000000000000000000000000000000000000000000006001600160a01b03168152602090f35b34610431575f36600319011261043157610f10612b9b565b60075460ff811615610f4f5760ff19166007557f5db9ee0a495bf2e6ff9c91a7834c1ba4fdd244a5e8aa4e537bd38aeae4b073aa6020604051338152a1005b638dfc202b60e01b5f5260045ffd5b34610431576020366003190112610431576001600160a01b03610f7f610435565b165f52600e60205260405f2060ff600a820154165f14610fa85760056020910154604051908152f35b5060205f610726565b34610431576020366003190112610431576040516315d0e4b560e11b81526001600160a01b037f0000000000000000000000000000000000000000000000000000000000000000166004828101919091523560a08260248173__$1f06ac8d622ce42796cee98ba1044ce165$__5af49081156110a257611038925f9261106c575b50611dce565b6402540be4008102908082046402540be4001490151715611067576103ab90670de0b6b3a76400009004610604565b611d62565b61108f91925060a03d60a01161109b575b611087818361079b565b810190611f1b565b5050509050905f611032565b503d61107d565b611f4d565b34610431576020366003190112610431576110c0610435565b6001600160a01b0381165f908152600e60205260409020906110e96104b7600a84015460ff1690565b6106405761060461115c6105966103ab94610591611105611bf1565b91611117611111610bdc565b84612d78565b611135600d5461112e6105298260ff9060401c1690565b9085612500565b6111496001611142611c71565b9201610c71565b61115282611cab565b5261058a81611cab565b916105ed6111686107bc565b5f815233602082015291600260408401526105dd565b346104315760403660031901126104315760206111cc61119c610435565b6111a461044b565b6001600160a01b039182165f9081526011855260408082209290931681526020919091522090565b54604051908152f35b34610431575f36600319011261043157602060ff600754166040519015158152f35b34610431575f366003190112610431576020601454604051908152f35b34610431576020366003190112610431576001600160a01b03611235610435565b165f526002602052602060405f2054604051908152f35b34610431576020366003190112610431576001600160a01b0361126d610435565b165f526010602052608060405f208054906001810154906003600282015491015491604051938452602084015260408301526060820152f35b34610431575f366003190112610431576001546001600160a01b03163303611325575f546001600160a01b03165f80546001600160a01b03191633179055600180546001600160a01b031916905533906001600160a01b03167f8be0079c531659141344cd1fd0a4f28419497f9722a3daafe3b4186f6b6457e05f80a3005b60405162461bcd60e51b815260206004820152601660248201527526bab9ba10313290383937b837b9b2b21037bbb732b960511b6044820152606490fd5b34610431575f3660031901126104315761137b612b9b565b611383612ceb565b600160ff1960075416176007557f62e78cea01bee320cd4e420270b5ea74000d11b0c9f74754ebdbfc544b05a2586020604051338152a1005b34610431575f366003190112610431576020604051678ac7230489e800008152f35b34610431575f366003190112610431575f546040516001600160a01b039091168152602090f35b610354906020815261018061016061144261142c86518460208701526101a086019061031f565b6020870151858203601f1901604087015261031f565b9461145560408201516060860190610d32565b60608101516080850152608081015160a085015260a081015160c085015260c081015160e085015260e08101516101008501526101008101516101208501526101208101516101408501526114b36101408201518386019015159052565b01516001600160a01b0316910152565b34610431576020366003190112610431576114dc610435565b5f6101606040516114ec8161075f565b60608152606060208201528260408201528260608201528260808201528260a08201528260c08201528260e0820152826101008201528261012082015282610140820152015260018060a01b03165f52600e6020526103ab61155060405f20611f64565b60405191829182611405565b34610431575f366003190112610431576040515f60065461157c81610aef565b808452906001811690811561040d57506001146115a3576103ab8361039f8185038261079b565b60065f9081527ff652222313e28459528d920b65115c16c04f3efc82aaedc97be59f3f377c0d3f939250905b8082106115e75750909150810160200161039f61038f565b9192600181602092548385880101520191019092916115cf565b34610431575f3660031901126104315760206040516402540be4008152f35b634e487b7160e01b5f52603260045260245ffd5b60145481101561164c5760145f5260205f2001905f90565b611620565b34610431576020366003190112610431576004356014548110156104315760145f527fce6d7b5282bd9a3661ae061feed1dbda4e52ab073b1f9285be6e155d9c38d4ec01546040516001600160a01b039091168152602090f35b34610431576040366003190112610431576116d16116c7610435565b6024359033612bec565b602060405160018152f35b6040366003190112610431576116f0610435565b60243560026008541461181e57600260085561170a612ceb565b6117346104b7600a61172c8560018060a01b03165f52600e60205260405f2090565b015460ff1690565b610640576117428183612027565b678ac7230489e80000811061180f5761175a90611e04565b341061180057335f908152601260205260409020611779348254611e31565b9055335f9081526011602090815260408083206001600160a01b038616845290915290206117a8828254611e31565b90556117b48133612d06565b604080519182523460208301526001600160a01b03929092169133917fae8e990e177069122a53f480ce276c6d6de79bb8b558f4ebb43c139b57fb569c9190a36117fe6001600855565b005b631a6dc21b60e11b5f5260045ffd5b63e0ee813960e01b5f5260045ffd5b633ee5aeb560e01b5f5260045ffd5b34610431575f366003190112610431576020604051670de0b6b3a76400008152f35b34610431575f3660031901126104315760206040516127108152f35b346104315760203660031901126104315760043560145481101561164c5760145f527fce6d7b5282bd9a3661ae061feed1dbda4e52ab073b1f9285be6e155d9c38d4ec01546040516001600160a01b039091168152602090f35b346104315760403660031901126104315760206107266118e3610435565b60243590612027565b34610431575f366003190112610431576040517f00000000000000000000000000000000000000000000000000000000000000006001600160a01b03168152602090f35b34610431575f36600319011261043157602060405160968152f35b34610431575f366003190112610431576040517f00000000000000000000000000000000000000000000000000000000000000006001600160a01b03168152602090f35b346104315760403660031901126104315760206111cc6119ad610435565b6119b561044b565b6001600160a01b039182165f9081526003855260408082209290931681526020919091522090565b34610431576020366003190112610431576119f6610435565b6119fe612b9b565b6001600160a01b0316338114611a5357600180546001600160a01b031916821790555f80546001600160a01b0316907fed8889f560326eb138920d842192f0eb3dd22b4f139c87a2c57538e05bae12789080a3005b60405162461bcd60e51b815260206004820152601760248201527f43616e6e6f74207472616e7366657220746f2073656c660000000000000000006044820152606490fd5b346104315761012036600319011261043157611ab2610435565b6024356001600160401b03811161043157611ad19036906004016107f8565b906044356001600160401b03811161043157611af19036906004016107f8565b91606435926008841015610431576117fe9360843560a4359160c4359360e43595611b1a610461565b97612059565b34610431576020366003190112610431576001600160a01b03611b41610435565b165f526012602052602060405f2054604051908152f35b346104315760203660031901126104315760043560ff8116810361043157611b7e612b9b565b60ff60401b600d549160401b169060ff60401b191617600d555f80f35b34610431576020366003190112610431576001600160a01b03611bbc610435565b165f526013602052602060405f2054604051908152f35b34610431576020366003190112610431576020610726600435612434565b6040519060e082018281106001600160401b0382111761077b57604052606060c0835f81525f60208201525f604082015282808201528260808201528260a08201520152565b60405160609190611c48838261079b565b6002815291601f1901825f5b828110611c6057505050565b806060602080938501015201611c54565b60408051909190611c82838261079b565b6001815291601f1901825f5b828110611c9a57505050565b806060602080938501015201611c8e565b80511561164c5760200190565b80516001101561164c5760400190565b805182101561164c5760209160051b010190565b60041115610d2d57565b8151815560208201516001820180546001600160a01b0319166001600160a01b039290921691909117815560408301516004811015610d2d57815460ff60a01b191660a09190911b60ff60a01b1617905560609091015160029190910180546001600160a01b0319166001600160a01b03909216919091179055565b634e487b7160e01b5f52601160045260245ffd5b90670de0b6b3a7640000820291808304670de0b6b3a7640000149015171561106757565b906402540be4008202918083046402540be400149015171561106757565b908160011b918083046002149015171561106757565b8181029291811591840414171561106757565b634e487b7160e01b5f52601260045260245ffd5b8115611dff570490565b611de1565b6096810290808204609614901517156110675760646103549104612434565b906020820180921161106757565b9190820180921161106757565b6014548015611ef7575f905f905f5b818110611e7b5750508015611e6d57611e6861035492611d76565b611df5565b5050670de0b6b3a764000090565b611eb8611e9f611e8a83611634565b905460039190911b1c6001600160a01b031690565b6001600160a01b03165f908152600e6020526040902090565b600a81015460ff16611ece575b50600101611e4d565b93600191936003611ee7611ef093600589015490611e31565b96015490611e31565b9290611ec5565b50670de0b6b3a764000090565b519069ffffffffffffffffffff8216820361043157565b908160a091031261043157611f2f81611f04565b91602082015191604081015191610354608060608401519301611f04565b6040513d5f823e3d90fd5b6008821015610d2d5752565b906107cb612016600a611f756107cd565b94611f7f81610c71565b8652611f8d60018201610c71565b6020870152611fac611fa3600283015460ff1690565b60408801611f58565b6003810154606087015260048101546080870152600581015460a0870152600681015460c0870152600781015460e087015260088101546101008701526009810154610120870152015461200760ff82161515610140870152565b60081c6001600160a01b031690565b6001600160a01b0316610160840152565b60018060a01b03165f52600e602052600361204b60405f2092600584015490611dce565b910154908115611dff570490565b9492959690979391612069612b9b565b6001600160a01b0386165f908152600e6020526040902061208c90600a9061172c565b6106405761212461217595612140937ff3dfe5782af357e3b5e1d49db57d52768cb09529f7e5fb7336c58f1484d882c69a6120c56107cd565b9485528c60208601526120db8b60408701611f58565b8760608601528660808601528660a086015260c085015260e08401524261010084015242610120840152612113610140840160019052565b6001600160a01b0316610160830152565b6001600160a01b0386165f908152600e602052604090206122ac565b6121498461238c565b61215c6121576015546123f6565b601555565b6040516001600160a01b03909416969394859485612404565b0390a2565b601f821161218757505050565b5f5260205f20906020601f840160051c830193106121bf575b601f0160051c01905b8181106121b4575050565b5f81556001016121a9565b90915081906121a0565b91909182516001600160401b03811161077b576121f0816121ea8454610aef565b8461217a565b6020601f821160011461222f5781906122209394955f92612224575b50508160011b915f199060031b1c19161790565b9055565b015190505f8061220c565b601f19821690612242845f5260205f2090565b915f5b81811061227c57509583600195969710612264575b505050811b019055565b01515f1960f88460031b161c191690555f808061225a565b9192602060018192868b015181550194019201612245565b906008811015610d2d5760ff80198354169116179055565b9061236a610160600a6107cb946122c48551826121c9565b6122d56020860151600183016121c9565b6122ef60408601516122e681610d23565b60028301612294565b606085015160038201556080850151600482015560a0850151600582015560c0850151600682015560e0850151600782015561010085015160088201556101208501516009820155019261235c61234a610140830151151590565b859060ff801983541691151516179055565b01516001600160a01b031690565b8154610100600160a81b03191660089190911b610100600160a81b0316179055565b6014546801000000000000000081101561077b576001810160145560145481101561164c5760145f527fce6d7b5282bd9a3661ae061feed1dbda4e52ab073b1f9285be6e155d9c38d4ec0180546001600160a01b0319166001600160a01b03909216919091179055565b5f1981146110675760010190565b909261242b61242060609497969560808552608085019061031f565b966020840190610d32565b60408201520152565b6040516315d0e4b560e11b81526001600160a01b037f00000000000000000000000000000000000000000000000000000000000000001660048201529060a08260248173__$1f06ac8d622ce42796cee98ba1044ce165$__5af49182156110a2575f926124d0575b50670de0b6b3a7640000810290808204670de0b6b3a76400001490151715611067576124ca61035492611d9a565b90611df5565b6124ea91925060a03d60a01161109b57611087818361079b565b5050509050905f61249c565b60031115610d2d57565b9190612577608092612571612513612db6565b9361254b60ff604092612544845161252b868261079b565b60068152651cdb1bdd125160d21b602082015289612de6565b16866131b3565b6125578151918261079b565b60078152663b32b939b4b7b760c91b602082015284612de6565b826131b3565b600260208401525151910152565b9061258f826107dd565b61259c604051918261079b565b82815280926125ad601f19916107dd565b0190602036910137565b805f9172184f03e93ff9f4daa797ed6e38ed64bf6a1f0160401b8210156126ea575b806d04ee2d6d415b85acef8100000000600a9210156126ce575b662386f26fc100008110156126b9575b6305f5e1008110156126a7575b612710811015612697575b6064811015612688575b101561267d575b612668602161263d60018501612585565b938401015b5f1901916f181899199a1a9b1b9c1cb0b131b232b360811b600a82061a8353600a900490565b8015612678576126689091612642565b505090565b60019091019061262c565b60029060649004930192612625565b600490612710900493019261261b565b6008906305f5e1009004930192612610565b601090662386f26fc100009004930192612603565b6020906d04ee2d6d415b85acef810000000090049301926125f3565b506040915072184f03e93ff9f4daa797ed6e38ed64bf6a1f0160401b81046125d9565b81511561271a5760a00152565b63fe936cb760e01b5f5260045ffd5b6040519061273860408361079b565b600c82526b31b7b232a637b1b0ba34b7b760a11b6020830152565b6040519061276260408361079b565b60088252676c616e677561676560c01b6020830152565b60011115610d2d57565b6040519061279260408361079b565b6006825265736f7572636560d01b6020830152565b604051906127b660408361079b565b60048252636172677360e01b6020830152565b604051906127d860408361079b565b600f82526e39b2b1b932ba39a637b1b0ba34b7b760891b6020830152565b6040519061280560408361079b565b60078252667365637265747360c81b6020830152565b6040519061282a60408361079b565b600982526862797465734172677360b81b6020830152565b61284a612db6565b9061285c612856612729565b83612de6565b612879815161286a816124f6565b612873816124f6565b83612ecf565b612884612856612753565b61289e604082015161289581612779565b61287381612779565b6128a9612856612783565b6128b7606082015183612de6565b60a081018051516129b3575b506080810190815151612936575b60c09150018051516128e4575b50515190565b916128f061285661281b565b6128f982612efc565b5f5b83518051821015612923579061291d61291682600194611cc8565b5185612f5d565b016128fb565b5050915061293081612f3b565b5f6128de565b602081018051612945816124f6565b61294e816124f6565b156129a45760c09261298761299f9261296e6129686127c9565b88612de6565b51612978816124f6565b612981816124f6565b86612ecf565b6129986129926127f6565b86612de6565b5184612f5d565b6128d1565b63a80d31f760e01b5f5260045ffd5b926129c56129bf6127a7565b84612de6565b6129ce83612efc565b5f5b845180518210156129f857906129f26129eb82600194611cc8565b5186612de6565b016129d0565b50509250612a0582612f3b565b5f6128c3565b90816020910312610431575190565b916020916001600160401b0391612a53604051958694859463230e93b160e11b865216600485015260a0602485015260a484019061031f565b60016044840152620493e06064840152608483019190915203815f7f00000000000000000000000000000000000000000000000000000000000000006001600160a01b03165af19081156110a2575f91612ad1575b50807f1131472297a800fee664d1d89cfa8f7676ff07189ecc53f80bbb5f4969099db85f80a290565b612af3915060203d602011612af9575b612aeb818361079b565b810190612a0b565b5f612aa8565b503d612ae1565b90604051608081018181106001600160401b0382111761077b576040528254815260018301546001600160a01b03811660208301529092839160a01c60ff16906004821015610d2d576040830191909152600201546001600160a01b0316606090910152565b9192906004811015610d2d5761035493612b8d91845260606020850152606084019061031f565b91604081840391015261031f565b5f546001600160a01b03163303612bae57565b60405162461bcd60e51b815260206004820152601660248201527527b7363c9031b0b63630b1363290313c9037bbb732b960511b6044820152606490fd5b916001600160a01b038316918215612cd8576001600160a01b038116938415612cc5576001600160a01b0381165f90815260026020526040902054838110612caa57612ca5928492612c757fddf252ad1be2c89b69c2b068fc378daa952ba7f163c4a11628f55a4df523b3ef96612c8f94039160018060a01b03165f52600260205260405f2090565b556001600160a01b03165f90815260026020526040902090565b8054820190556040519081529081906020820190565b0390a3565b83908563391434e360e21b5f5260045260245260445260645ffd5b63ec442f0560e01b5f525f60045260245ffd5b634b637e8f60e11b5f525f60045260245ffd5b60ff60075416612cf757565b63d93c066560e01b5f5260045ffd5b6001600160a01b03811691908215612cc55760045490828201809211611067575f92612d696020927fddf252ad1be2c89b69c2b068fc378daa952ba7f163c4a11628f55a4df523b3ef9460045560018060a01b03165f52600260205260405f2090565b818154019055604051908152a3565b815115612d8e575f808252604082015260600152565b6322ce3edd60e01b5f5260045ffd5b60405190612daa82610780565b5f602083606081520152565b604051612dc281610780565b5f612dcb612d9d565b808352612de16101006020850192848452613162565b505290565b8151612e379291906001600160401b031660178111612e3a578151612e2291612e1c90612e1560605b60ff1690565b1760ff1690565b9061338f565b505b5190612e2e612d9d565b50805191613625565b50565b60ff8111612e67578151612e619190612e5990601860605b179061338f565b5082516135a5565b50612e24565b61ffff8111612e8c578151612e619190612e849060196060612e52565b50825161352c565b63ffffffff8111612eb3578151612e619190612eab90601a6060612e52565b5082516134b3565b8151612e619190612ec790601b6060612e52565b508251613435565b906107cb91612ede815161331f565b5060405191602083015260208252612ef760408361079b565b612f5d565b602090612f0b609f825161338f565b5001805190600182018092116110675752565b601f1981019190821161106757565b5f1981019190821161106757565b602090612f4a60ff825161338f565b500180515f198101919082116110675752565b8151612e379291906001600160401b031660178111612f8a578151612e2291612e1c90612e156040612e0f565b60ff8111612fa6578151612e619190612e599060186040612e52565b61ffff8111612fc3578151612e619190612e849060196040612e52565b63ffffffff8111612fe2578151612e619190612eab90601a6040612e52565b8151612e619190612ec790601b6040612e52565b6001600160a01b03169081156106f5576001600160a01b038116156106e257613039915f52600360205260405f209060018060a01b03165f5260205260405f2090565b55565b9091516130e7576107cb917f777e363e8cdeeebf6beb80ec6f8ad1c36f6dd4a36fa5bab85e7027221132dde06130df60018060a01b03841692835f52600e60205260405f20845f52601060205260016130a260405f209360208082518301019101612a0b565b926130ae848254611e31565b8155016130bc838254611e31565b905560094291015560405191829142908360209093929193604081019481520152565b0390a26133fa565b5050565b9091516130e75760607f882d47db9f851bff26060b474b01abc36fbef509c4e428d84bb59e5caaba80799160018060a01b031692835f52600e60205260405f20600581019061314582549360208082518301019101612a0b565b8092556008429101556040519182526020820152426040820152a2565b9061316b612d9d565b50601f811680613199575b50806020830152604051908183525f825281016020019081106104315760405290565b60200360208111611067578101809111611067575f613176565b906001600160401b038116601781116131da57509051612e3791612e1c90612e155f612e0f565b905060ff81116131fe578151612e3792906131f79060185f612e52565b50516135a5565b61ffff8111613221578151612e37929061321a9060195f612e52565b505161352c565b63ffffffff8111613246578151612e37929061323f90601a5f612e52565b50516134b3565b8151612e37929061325990601b5f612e52565b5051613435565b90613269612d9d565b508051613274612d9d565b50613282825182111561361e565b825151916132908284611e31565b9060208501518211613308575b602091855183815196820101958211613300575b505001905b60208110156132da575f19906020036101000a019081199051169082511617905290565b90916132f56132ef6132fb9285518152611e23565b93611e23565b91612f1e565b6132b6565b525f806132b1565b61331a61331483611db8565b866136ca565b61329d565b613327612d9d565b508051516001810190818111611067576020830151811015613360575b60c26020845192830101538051821161335c57505090565b5290565b8160011b82810460021483151715611067576133899061338285519186613162565b5084613260565b50613344565b90613398612d9d565b5081515160018101918282116110675760208401518210156133cb575b6020845192830101538051821161335c57505090565b8260011b83810460021484151715611067576133f4906133ed86519187613162565b5085613260565b506133b5565b6001600160a01b03165f908152601060205260409020600181018054156130e7575f9055600242910155565b601f8111611067576101000a90565b9061343e612d9d565b50815151806008019182600811611067576020840151831161348b575b61346d6134686008613426565b612f2d565b90600885519384010191198251161790528051821161335c57505090565b8260011b83810460021484151715611067576134ad906133ed86519187613162565b5061345b565b906134bc612d9d565b508151518060040191826004116110675760208401518311613504575b6134e66134686004613426565b90600485519384010191198251161790528051821161335c57505090565b8260011b8381046002148415171561106757613526906133ed86519187613162565b506134d9565b90613535612d9d565b50815151806002019182600211611067576020840151831161357d575b61355f6134686002613426565b90600285519384010191198251161790528051821161335c57505090565b8260011b838104600214841517156110675761359f906133ed86519187613162565b50613552565b906135ae612d9d565b5081515180600101918260011161106757602084015183116135f6575b6135d86134686001613426565b90600185519384010191198251161790528051821161335c57505090565b8260011b8381046002148415171561106757613618906133ed86519187613162565b506135cb565b1561043157565b9161362e612d9d565b5061363c825182111561361e565b60208351519261364c8385611e31565b8286015181116136b3575b8551838151968201019582116136ab575b505001905b6020811015613691575f19906020036101000a019081199051169082511617905290565b90916132f56132ef6136a69285518152611e23565b61366d565b525f80613668565b6136c56136bf82611db8565b876136ca565b613657565b90612e37916136db81519282613162565b5061326056fea26469706673582212206430899fea1b966a96c59d77cd89e3db932c6d6030127b686dab75d951b768d464736f6c634300081e0033","linkReferences":{"src/libraries/OracleLib.sol":{"OracleLib":[{"start":6173,"length":20},{"start":11403,"length":20}]}}},"methodIdentifiers":{"ADDITIONAL_FEED_PRECISION()":"a0da12a5","COLLATERAL_PRECISION()":"328f7c48","COLLATERAL_RATIO()":"d9e69a05","MINIMUM_INVESTMENT()":"8a4660fe","PLATFORM_FEE()":"34fbc9a1","PRECISION()":"aaf5eb68","YIELD_PRECISION()":"bf0524f3","acceptOwnership()":"79ba5097","activeProperties(uint256)":"a8b268de","allowance(address,address)":"dd62ed3e","approve(address,uint256)":"095ea7b3","balanceOf(address)":"70a08231","decimals()":"313ce567","getActivePropertiesCount()":"603ddf11","getActiveProperty(uint256)":"c81c4b26","getCurrentPropertyValue()":"35f5d702","getEthAmountFromUsd(uint256)":"ffd7db56","getProperty(address)":"952ba6d4","getPropertyCurrentValue(address)":"504fe0b4","getRequiredCollateral(uint256)":"09cd4e26","getUsdAmountFromEth(uint256)":"51995489","getUsdValueOfPropertyTokens(address,uint256)":"d53c886e","getUserPropertyBalance(address,address)":"5752fe37","handleOracleFulfillment(bytes32,bytes,bytes)":"0ca76175","i_ethUsdFeed()":"3cad20d1","i_redemptionCoin()":"dac42a72","i_usdcUsdFeed()":"d917d552","investInProperty(address,uint256)":"a9d67d21","name()":"06fdde03","owner()":"8da5cb5b","pause()":"8456cb59","paused()":"5c975abb","properties(address)":"25ec77d7","propertyRentals(address)":"749e5d4d","registerProperty(address,string,string,uint8,uint256,uint256,uint256,uint256,address)":"f3d88a9a","requestPropertyValuation(address)":"53a63130","requestRentCollection(address)":"09100b29","setSecretSlot(uint8)":"fa139f98","setSecretVersion(uint64)":"1b93b265","symbol()":"95d89b41","totalProperties()":"0b3bce20","totalSupply()":"18160ddd","transfer(address,uint256)":"a9059cbb","transferFrom(address,address,uint256)":"23b872dd","transferOwnership(address)":"f2fde38b","unpause()":"3f4ba83a","userCollateral(address)":"f69f1e4a","userPropertyTokens(address,address)":"bfe4f21d","userWithdrawableRent(address)":"fe5b01e4"},"id":56}