{"abi":[{"type":"constructor","inputs":[{"name":"router","type":"address","internalType":"address"},{"name":"propertyTokenAddress","type":"address","internalType":"address"}],"stateMutability":"nonpayable"},{"type":"receive","stateMutability":"payable"},{"type":"function","name":"acceptOwnership","inputs":[],"outputs":[],"stateMutability":"nonpayable"},{"type":"function","name":"allowlistedDestinationChains","inputs":[{"name":"","type":"uint64","internalType":"uint64"}],"outputs":[{"name":"","type":"bool","internalType":"bool"}],"stateMutability":"view"},{"type":"function","name":"allowlistedSenders","inputs":[{"name":"","type":"address","internalType":"address"}],"outputs":[{"name":"","type":"bool","internalType":"bool"}],"stateMutability":"view"},{"type":"function","name":"allowlistedSourceChains","inputs":[{"name":"","type":"uint64","internalType":"uint64"}],"outputs":[{"name":"","type":"bool","internalType":"bool"}],"stateMutability":"view"},{"type":"function","name":"arbitrageOpportunities","inputs":[{"name":"","type":"bytes32","internalType":"bytes32"}],"outputs":[{"name":"propertyToken","type":"address","internalType":"address"},{"name":"sourceChain","type":"uint64","internalType":"uint64"},{"name":"destinationChain","type":"uint64","internalType":"uint64"},{"name":"priceDifference","type":"uint256","internalType":"uint256"},{"name":"potentialProfit","type":"uint256","internalType":"uint256"},{"name":"isActive","type":"bool","internalType":"bool"}],"stateMutability":"view"},{"type":"function","name":"arbitrageThreshold","inputs":[],"outputs":[{"name":"","type":"uint256","internalType":"uint256"}],"stateMutability":"view"},{"type":"function","name":"bridgeFee","inputs":[],"outputs":[{"name":"","type":"uint256","internalType":"uint256"}],"stateMutability":"view"},{"type":"function","name":"bridgePropertyTokens","inputs":[{"name":"destinationChainSelector","type":"uint64","internalType":"uint64"},{"name":"receiver","type":"address","internalType":"address"},{"name":"propertyToken","type":"address","internalType":"address"},{"name":"amount","type":"uint256","internalType":"uint256"}],"outputs":[{"name":"messageId","type":"bytes32","internalType":"bytes32"}],"stateMutability":"payable"},{"type":"function","name":"ccipReceive","inputs":[{"name":"message","type":"tuple","internalType":"struct Client.Any2EVMMessage","components":[{"name":"messageId","type":"bytes32","internalType":"bytes32"},{"name":"sourceChainSelector","type":"uint64","internalType":"uint64"},{"name":"sender","type":"bytes","internalType":"bytes"},{"name":"data","type":"bytes","internalType":"bytes"},{"name":"destTokenAmounts","type":"tuple[]","internalType":"struct Client.EVMTokenAmount[]","components":[{"name":"token","type":"address","internalType":"address"},{"name":"amount","type":"uint256","internalType":"uint256"}]}]}],"outputs":[],"stateMutability":"nonpayable"},{"type":"function","name":"configureChain","inputs":[{"name":"chainSelector","type":"uint64","internalType":"uint64"},{"name":"propertyBridge","type":"address","internalType":"address"},{"name":"propertyToken","type":"address","internalType":"address"},{"name":"gasLimit","type":"uint256","internalType":"uint256"}],"outputs":[],"stateMutability":"nonpayable"},{"type":"function","name":"detectArbitrageOpportunity","inputs":[{"name":"propertyToken","type":"address","internalType":"address"},{"name":"sourceChain","type":"uint64","internalType":"uint64"},{"name":"destinationChain","type":"uint64","internalType":"uint64"},{"name":"sourcePrice","type":"uint256","internalType":"uint256"},{"name":"destinationPrice","type":"uint256","internalType":"uint256"}],"outputs":[],"stateMutability":"nonpayable"},{"type":"function","name":"emergencyWithdraw","inputs":[{"name":"token","type":"address","internalType":"address"},{"name":"amount","type":"uint256","internalType":"uint256"}],"outputs":[],"stateMutability":"nonpayable"},{"type":"function","name":"emergencyWithdrawEth","inputs":[],"outputs":[],"stateMutability":"nonpayable"},{"type":"function","name":"getArbitrageOpportunity","inputs":[{"name":"opportunityId","type":"bytes32","internalType":"bytes32"}],"outputs":[{"name":"opportunity","type":"tuple","internalType":"struct PropertyBridge.ArbitrageOpportunity","components":[{"name":"propertyToken","type":"address","internalType":"address"},{"name":"sourceChain","type":"uint64","internalType":"uint64"},{"name":"destinationChain","type":"uint64","internalType":"uint64"},{"name":"priceDifference","type":"uint256","internalType":"uint256"},{"name":"potentialProfit","type":"uint256","internalType":"uint256"},{"name":"isActive","type":"bool","internalType":"bool"}]}],"stateMutability":"view"},{"type":"function","name":"getChainConfig","inputs":[{"name":"chainSelector","type":"uint64","internalType":"uint64"}],"outputs":[{"name":"config","type":"tuple","internalType":"struct PropertyBridge.ChainConfig","components":[{"name":"chainSelector","type":"uint64","internalType":"uint64"},{"name":"propertyBridge","type":"address","internalType":"address"},{"name":"propertyToken","type":"address","internalType":"address"},{"name":"isActive","type":"bool","internalType":"bool"},{"name":"gasLimit","type":"uint256","internalType":"uint256"}]}],"stateMutability":"view"},{"type":"function","name":"getLastReceivedMessageDetails","inputs":[],"outputs":[{"name":"messageId","type":"bytes32","internalType":"bytes32"},{"name":"tokenAddress","type":"address","internalType":"address"},{"name":"tokenAmount","type":"uint256","internalType":"uint256"},{"name":"text","type":"string","internalType":"string"}],"stateMutability":"view"},{"type":"function","name":"getRouter","inputs":[],"outputs":[{"name":"","type":"address","internalType":"address"}],"stateMutability":"view"},{"type":"function","name":"getUserTotalBalance","inputs":[{"name":"user","type":"address","internalType":"address"}],"outputs":[{"name":"totalBalance","type":"uint256","internalType":"uint256"}],"stateMutability":"view"},{"type":"function","name":"i_propertyToken","inputs":[],"outputs":[{"name":"","type":"address","internalType":"contract PropertyToken"}],"stateMutability":"view"},{"type":"function","name":"maxTransferAmount","inputs":[],"outputs":[{"name":"","type":"uint256","internalType":"uint256"}],"stateMutability":"view"},{"type":"function","name":"minTransferAmount","inputs":[],"outputs":[{"name":"","type":"uint256","internalType":"uint256"}],"stateMutability":"view"},{"type":"function","name":"owner","inputs":[],"outputs":[{"name":"","type":"address","internalType":"address"}],"stateMutability":"view"},{"type":"function","name":"pause","inputs":[],"outputs":[],"stateMutability":"nonpayable"},{"type":"function","name":"paused","inputs":[],"outputs":[{"name":"","type":"bool","internalType":"bool"}],"stateMutability":"view"},{"type":"function","name":"propertyIdToToken","inputs":[{"name":"","type":"bytes32","internalType":"bytes32"}],"outputs":[{"name":"","type":"address","internalType":"address"}],"stateMutability":"view"},{"type":"function","name":"propertyTokenOnChain","inputs":[{"name":"","type":"address","internalType":"address"},{"name":"","type":"uint64","internalType":"uint64"}],"outputs":[{"name":"","type":"address","internalType":"address"}],"stateMutability":"view"},{"type":"function","name":"supportedChains","inputs":[{"name":"","type":"uint64","internalType":"uint64"}],"outputs":[{"name":"chainSelector","type":"uint64","internalType":"uint64"},{"name":"propertyBridge","type":"address","internalType":"address"},{"name":"propertyToken","type":"address","internalType":"address"},{"name":"isActive","type":"bool","internalType":"bool"},{"name":"gasLimit","type":"uint256","internalType":"uint256"}],"stateMutability":"view"},{"type":"function","name":"supportsInterface","inputs":[{"name":"interfaceId","type":"bytes4","internalType":"bytes4"}],"outputs":[{"name":"","type":"bool","internalType":"bool"}],"stateMutability":"pure"},{"type":"function","name":"transferOwnership","inputs":[{"name":"to","type":"address","internalType":"address"}],"outputs":[],"stateMutability":"nonpayable"},{"type":"function","name":"unpause","inputs":[],"outputs":[],"stateMutability":"nonpayable"},{"type":"function","name":"updateBridgeFee","inputs":[{"name":"newFee","type":"uint256","internalType":"uint256"}],"outputs":[],"stateMutability":"nonpayable"},{"type":"function","name":"updateTransferLimits","inputs":[{"name":"newMinAmount","type":"uint256","internalType":"uint256"},{"name":"newMaxAmount","type":"uint256","internalType":"uint256"}],"outputs":[],"stateMutability":"nonpayable"},{"type":"function","name":"userBalanceOnChain","inputs":[{"name":"","type":"address","internalType":"address"},{"name":"","type":"uint64","internalType":"uint64"}],"outputs":[{"name":"","type":"uint256","internalType":"uint256"}],"stateMutability":"view"},{"type":"function","name":"userTotalBalance","inputs":[{"name":"","type":"address","internalType":"address"}],"outputs":[{"name":"","type":"uint256","internalType":"uint256"}],"stateMutability":"view"},{"type":"event","name":"ArbitrageExecuted","inputs":[{"name":"opportunityId","type":"bytes32","indexed":true,"internalType":"bytes32"},{"name":"executor","type":"address","indexed":false,"internalType":"address"},{"name":"profit","type":"uint256","indexed":false,"internalType":"uint256"}],"anonymous":false},{"type":"event","name":"ArbitrageOpportunityDetected","inputs":[{"name":"opportunityId","type":"bytes32","indexed":true,"internalType":"bytes32"},{"name":"propertyToken","type":"address","indexed":false,"internalType":"address"},{"name":"sourceChain","type":"uint64","indexed":false,"internalType":"uint64"},{"name":"destinationChain","type":"uint64","indexed":false,"internalType":"uint64"},{"name":"priceDifference","type":"uint256","indexed":false,"internalType":"uint256"}],"anonymous":false},{"type":"event","name":"ChainConfigured","inputs":[{"name":"chainSelector","type":"uint64","indexed":true,"internalType":"uint64"},{"name":"propertyBridge","type":"address","indexed":false,"internalType":"address"},{"name":"propertyToken","type":"address","indexed":false,"internalType":"address"},{"name":"gasLimit","type":"uint256","indexed":false,"internalType":"uint256"}],"anonymous":false},{"type":"event","name":"CollateralSynced","inputs":[{"name":"user","type":"address","indexed":true,"internalType":"address"},{"name":"sourceChain","type":"uint64","indexed":true,"internalType":"uint64"},{"name":"collateralAmount","type":"uint256","indexed":false,"internalType":"uint256"},{"name":"totalPropertyValue","type":"uint256","indexed":false,"internalType":"uint256"}],"anonymous":false},{"type":"event","name":"OwnershipTransferRequested","inputs":[{"name":"from","type":"address","indexed":true,"internalType":"address"},{"name":"to","type":"address","indexed":true,"internalType":"address"}],"anonymous":false},{"type":"event","name":"OwnershipTransferred","inputs":[{"name":"from","type":"address","indexed":true,"internalType":"address"},{"name":"to","type":"address","indexed":true,"internalType":"address"}],"anonymous":false},{"type":"event","name":"Paused","inputs":[{"name":"account","type":"address","indexed":false,"internalType":"address"}],"anonymous":false},{"type":"event","name":"PropertyTokensBridged","inputs":[{"name":"messageId","type":"bytes32","indexed":true,"internalType":"bytes32"},{"name":"destinationChainSelector","type":"uint64","indexed":true,"internalType":"uint64"},{"name":"receiver","type":"address","indexed":false,"internalType":"address"},{"name":"propertyToken","type":"address","indexed":false,"internalType":"address"},{"name":"amount","type":"uint256","indexed":false,"internalType":"uint256"},{"name":"fees","type":"uint256","indexed":false,"internalType":"uint256"}],"anonymous":false},{"type":"event","name":"PropertyTokensReceived","inputs":[{"name":"messageId","type":"bytes32","indexed":true,"internalType":"bytes32"},{"name":"sourceChainSelector","type":"uint64","indexed":true,"internalType":"uint64"},{"name":"sender","type":"address","indexed":false,"internalType":"address"},{"name":"propertyToken","type":"address","indexed":false,"internalType":"address"},{"name":"amount","type":"uint256","indexed":false,"internalType":"uint256"}],"anonymous":false},{"type":"event","name":"Unpaused","inputs":[{"name":"account","type":"address","indexed":false,"internalType":"address"}],"anonymous":false},{"type":"error","name":"EnforcedPause","inputs":[]},{"type":"error","name":"ExpectedPause","inputs":[]},{"type":"error","name":"InvalidRouter","inputs":[{"name":"router","type":"address","internalType":"address"}]},{"type":"error","name":"PropertyBridge__DestinationChainNotAllowlisted","inputs":[]},{"type":"error","name":"PropertyBridge__FailedToWithdrawEth","inputs":[]},{"type":"error","name":"PropertyBridge__InsufficientGasLimit","inputs":[]},{"type":"error","name":"PropertyBridge__InvalidPropertyToken","inputs":[]},{"type":"error","name":"PropertyBridge__InvalidReceiver","inputs":[]},{"type":"error","name":"PropertyBridge__NotEnoughBalance","inputs":[]},{"type":"error","name":"PropertyBridge__NothingToWithdraw","inputs":[]},{"type":"error","name":"PropertyBridge__SenderNotAllowlisted","inputs":[]},{"type":"error","name":"PropertyBridge__SourceChainNotAllowlisted","inputs":[]},{"type":"error","name":"ReentrancyGuardReentrantCall","inputs":[]}],"bytecode":{"object":"0x60c03461014f57601f61210c38819003918201601f19168301916001600160401b0383118484101761015357808492604094855283398101031261014f57610052602061004b83610167565b9201610167565b906001600160a01b0381161561013c5760805233156100f7575f80546001600160a01b0319163317905560016002556003805460ff1916905566038d7ea4c6800060105569d3c21bcecceda1000000601155670de0b6b3a764000060125560326014556001600160a01b031660a052604051611f90908161017c823960805181818161059d01526107c6015260a05181818161041a01528181610b3e01526114a90152f35b60405162461bcd60e51b815260206004820152601860248201527f43616e6e6f7420736574206f776e657220746f207a65726f00000000000000006044820152606490fd5b6335fdcccd60e21b5f525f60045260245ffd5b5f80fd5b634e487b7160e01b5f52604160045260245ffd5b51906001600160a01b038216820361014f5756fe608080604052600436101561001c575b50361561001a575f80fd5b005b5f3560e01c90816301ffc9a7146119cd575080630c0caf171461138157806322019a1c146112ff578063263596a5146111cb57806337e50943146111995780633f4ba83a146111335780634030d521146110f65780635a1c0366146110d55780635c975abb146110b35780636159ada114611076578063635f28d114611030578063682c6fc314610e905780636884143114610e7357806375c67c6614610e365780637923076c14610d5357806379ba509714610d8b578063821a3e6714610d5357806382b12dd714610d365780638456cb5914610cdd57806385572ffb146107945780638da5cb5b1461076d57806390952b0f1461071a57806395ccea6714610667578063a9e757231461064a578063ae410125146105cc578063b0f479a114610588578063b149092b146104a5578063c50d49e214610449578063c949b41b14610405578063cfbc3cfd146103de578063dc20ba92146103c1578063e82ae476146102da578063f2fde38b1461021f5763f9c3f3321461019e575f61000f565b3461021b57602036600319011261021b576001600160401b036101bf611a20565b165f52600860205260a060405f2080549060ff6002600183015492015491604051936001600160401b0381168552600180871b039060401c166020850152600180861b0381166040850152841c16151560608301526080820152f35b5f80fd5b3461021b57602036600319011261021b57610238611a4c565b610240611f09565b6001600160a01b031633811461029557600180546001600160a01b031916821790555f80546001600160a01b0316907fed8889f560326eb138920d842192f0eb3dd22b4f139c87a2c57538e05bae12789080a3005b60405162461bcd60e51b815260206004820152601760248201527f43616e6e6f74207472616e7366657220746f2073656c660000000000000000006044820152606490fd5b3461021b57602036600319011261021b575f60a06040516102fa81611aef565b82815282602082015282604082015282606082015282608082015201526004355f52601360205260c060405f2060405161033381611aef565b81549160018060a01b038316928383526001600160401b03602084019160a01c1681526001600160401b038060018401541660408501908152816002850154936060870194855260a060ff600460038901549860808b01998a5201541697019615158752604051978852511660208701525116604085015251606084015251608083015251151560a0820152f35b3461021b575f36600319011261021b576020601454604051908152f35b3461021b57604036600319011261021b576103f7611f09565b600435601255602435601155005b3461021b575f36600319011261021b576040517f00000000000000000000000000000000000000000000000000000000000000006001600160a01b03168152602090f35b3461021b57604036600319011261021b57610462611a4c565b61046a611a36565b9060018060a01b03165f52600c6020526001600160401b0360405f2091165f52602052602060405f2060018060a01b03905416604051908152f35b3461021b57602036600319011261021b576001600160401b036104c6611a20565b5f60806040516104d581611ad4565b8281528260208201528260408201528260608201520152165f52600860205260a060405f2060405161050681611ad4565b81546001600160401b038116928383526020830191600180871b039060401c1682526001810154916080600260408601936001808a1b038616855260ff60608801968a1c161515865201549401938452604051948552600180871b039051166020850152600180861b0390511660408401525115156060830152516080820152f35b3461021b575f36600319011261021b576040517f00000000000000000000000000000000000000000000000000000000000000006001600160a01b03168152602090f35b3461021b57602036600319011261021b576004355f52601360205260c060405f208054906001600160401b0360018201541690600281015460ff6004600384015493015416926001600160401b036040519560018060a01b038116875260a01c166020860152604085015260608401526080830152151560a0820152f35b3461021b575f36600319011261021b576020601154604051908152f35b3461021b57604036600319011261021b575f60206106c4610686611a4c565b61068e611f09565b835460405163a9059cbb60e01b81526001600160a01b039091166004820152602480359082015293849283919082906044820190565b03926001600160a01b03165af1801561070f576106dd57005b6020813d602011610707575b816106f660209383611b0a565b8101031261021b5761001a90611b2b565b3d91506106e9565b6040513d5f823e3d90fd5b3461021b57604036600319011261021b57610733611a4c565b61073b611a36565b9060018060a01b03165f52600e6020526001600160401b0360405f2091165f52602052602060405f2054604051908152f35b3461021b575f36600319011261021b575f546040516001600160a01b039091168152602090f35b3461021b57602036600319011261021b576004356001600160401b03811161021b5760a0600319823603011261021b577f00000000000000000000000000000000000000000000000000000000000000006001600160a01b03163303610cca576040519061080182611ad4565b806004013582526024810135906001600160401b038216820361021b576020830191825260448101356001600160401b03811161021b576108489060043691840101611e8a565b6040840190815260648201356001600160401b03811161021b576108729060043691850101611e8a565b91606085019283526084810135906001600160401b03821161021b57013660238201121561021b5760048101356001600160401b038111610c435760208160051b01916108c26040519384611b0a565b818352602060048185019360061b830101019036821161021b57602401915b818310610c755750505060808501526108f8611ed0565b6001600160401b038351165f52600a60205260ff60405f20541615610c66575160208180518101031261021b57602001516001600160a01b0381169081900361021b575f52600b60205260ff60405f20541615610c57575191825183016040846020830192031261021b57602084015193600485101561021b576040810151906001600160401b03821161021b57019080603f8301121561021b5760208201516109a492604001611b53565b9280610b6d57506001600160401b0390519151169160a08180518101031261021b57604051906109d382611ad4565b6109df60208201611ba6565b825260806109ef60408301611ba6565b926020810193845260a060608401519360408301948552610a11848201611ba6565b6060840152015191018190525f908152600d60205260409020546001600160a01b0316908115610b3c575b8251815160405163a9059cbb60e01b81526001600160a01b0390921660048301526024820152602081806044810103815f6001600160a01b0388165af1801561070f57610add575b5091519151604080516001600160a01b039485168152929093166020830152918101919091527f49b438d56288f85f1f660f4d57bfc8345802c1eec042fea6df376943256af70a9080606081015b0390a35b6001600255005b6020813d602011610b34575b81610af660209383611b0a565b8101031261021b577f49b438d56288f85f1f660f4d57bfc8345802c1eec042fea6df376943256af70a93610b2c610ad292611b2b565b509350610a84565b3d9150610ae9565b7f00000000000000000000000000000000000000000000000000000000000000006001600160a01b03169150610a3c565b6001915014610b7e575b5050610ad6565b6001600160401b039051169060608180518101031261021b57604051606081018181106001600160401b03821117610c43577fb7589fde3480f2c5d178c790c2030c9f034dfa6b44a87f0b497289cada272ff6916040918252610be360208501611ba6565b90818152606083860151956020830196875201518382019281845260018060a01b03165f52600e602052835f206001600160401b0388165f52602052835f205560018060a01b039051169351905182519182526020820152a38080610b77565b634e487b7160e01b5f52604160045260245ffd5b63659a339760e01b5f5260045ffd5b630c0646d960e11b5f5260045ffd5b60408336031261021b5760405190604082018281106001600160401b03821117610c43576040528335906001600160a01b038216820361021b57826020926040945282860135838201528152019201916108e1565b6335fdcccd60e21b5f523360045260245ffd5b3461021b575f36600319011261021b57610cf5611f09565b610cfd611eee565b600160ff1960035416176003557f62e78cea01bee320cd4e420270b5ea74000d11b0c9f74754ebdbfc544b05a2586020604051338152a1005b3461021b575f36600319011261021b576020601054604051908152f35b3461021b57602036600319011261021b576001600160a01b03610d74611a4c565b165f52600f602052602060405f2054604051908152f35b3461021b575f36600319011261021b576001546001600160a01b0381163303610df8575f80546001600160a01b031980821633908117845593166001556001600160a01b0316907f8be0079c531659141344cd1fd0a4f28419497f9722a3daafe3b4186f6b6457e09080a3005b60405162461bcd60e51b815260206004820152601660248201527526bab9ba10313290383937b837b9b2b21037bbb732b960511b6044820152606490fd5b3461021b57602036600319011261021b576001600160401b03610e57611a20565b165f526009602052602060ff60405f2054166040519015158152f35b3461021b575f36600319011261021b576020601254604051908152f35b3461021b5761102b7f6b57e0cc1f72382098d7f63c048e2fb44b86fddc3cbf73f9d049b5a93e4987b2610ec236611a62565b610ece95919395611f09565b6001600160401b0360405196610ee388611ad4565b16958681526020810190600260018060a01b038616928381526040830160018060a01b0389168152606084016001815260808501928784528c5f5260086020526001600160401b038060405f20975116166001600160401b03198754161786555185549068010000000000000000600160e01b039060401b16906001600160401b0363ffffffff60e01b0116178555600185019160018060a01b039060018060a01b03905116166001600160601b0360a01b83541617825551151581549060ff60a01b9060a01b169060ff60a01b191617905551910155865f52600960205260405f20600160ff19825416179055865f52600a60205260405f20600160ff198254161790555f52600b60205260405f20600160ff1982541617905560405193849384604091949392606082019560018060a01b0316825260018060a01b031660208201520152565b0390a2005b3461021b5760a036600319011261021b57611049611a4c565b611051611a36565b604435916001600160401b038316830361021b5761001a926084359260643592611ca5565b3461021b57602036600319011261021b576001600160a01b03611097611a4c565b165f52600b602052602060ff60405f2054166040519015158152f35b3461021b575f36600319011261021b57602060ff600354166040519015158152f35b3461021b57602036600319011261021b576110ee611f09565b600435601055005b3461021b57602036600319011261021b576001600160401b03611117611a20565b165f52600a602052602060ff60405f2054166040519015158152f35b3461021b575f36600319011261021b5761114b611f09565b60035460ff81161561118a5760ff19166003557f5db9ee0a495bf2e6ff9c91a7834c1ba4fdd244a5e8aa4e537bd38aeae4b073aa6020604051338152a1005b638dfc202b60e01b5f5260045ffd5b3461021b57602036600319011261021b576004355f52600d602052602060018060a01b0360405f205416604051908152f35b3461021b575f36600319011261021b5760045460018060a01b036005541690600654604051905f6007548060011c906001811680156112f5575b6020831081146112e1578286529081156112bd575060011461125b575b50906112348361125794930383611b0a565b604051948594855260208501526040840152608060608401526080830190611ab0565b0390f35b9291905060075f527fa66cc928b5edb82af9bd49922954155ab7b0942694bea4ce44661d9a8736c688925f905b8082106112a15750919250908201602001611234611222565b9192936001816020925483858901015201910190939291611288565b60ff191660208087019190915291151560051b850190910191506112349050611222565b634e487b7160e01b5f52602260045260245ffd5b91607f1691611205565b3461021b575f36600319011261021b57611317611f09565b478015611372575f8080809360018060a01b038254165af13d1561136d573d61133f81611b38565b9061134d6040519283611b0a565b81525f60203d92013e5b1561135e57005b63f4d599fd60e01b5f5260045ffd5b611357565b631db1010160e01b5f5260045ffd5b61138a36611a62565b61139693929193611ed0565b61139e611eee565b6001600160401b03831691825f52600960205260ff60405f205416156119a457601254821080156119c2575b6117d1576001600160a01b03169081156119b357825f52600860205260405f2090604051956113f887611ad4565b8254926001600160401b0384168852602088019360018060a01b039060401c1684526080600260ff600184015460018060a01b03811660408d015260a01c161592831560608c0152015498019788526119a4576040516323b872dd60e01b8152336004820152306024820152604481018390526001600160a01b0391909116906020816064815f865af1801561070f5761196d575b5060405163254ae9b560e21b8152600481018290525f816024817f00000000000000000000000000000000000000000000000000000000000000006001600160a01b03165afa801561070f575f90611846575b6020915001516040516115126020828180820195805191829101875e81015f838201520301601f198101835282611b0a565b5190206040519061152282611ad4565b82825260208201948686526040830185815260608401918583526080850193845260018060a01b039051169660405197602089015260208852611566604089611b0a565b604080515f602082015295516001600160a01b03908116918701919091529051811660608601529051608085015290511660a08301525160c08083019190915281526115b360e082611b0a565b6040516020986115c38a83611b0a565b5f82525191604051928a84018481106001600160401b03821117610c43576040528352604051926397a657c960e01b8b8501525160248401526024835261160b604484611b0a565b6040519561161887611ad4565b86528986015260408501525f606085015260808401526040519263b0f479a160e01b84528784600481305afa93841561070f575f9461180f575b508760405180956320487ded60e01b82528180611673868d60048401611bba565b03916001600160a01b03165afa93841561070f575f946117e0575b503484116117d15760405163b0f479a160e01b8152908882600481305afa801561070f5789925f91611796575b506116dd9886604051809b819582946396f4e9f960e01b845260048401611bba565b03926001600160a01b03165af195861561070f575f96611743575b50927f92c132aa7d1b2f09c9f59923a498ae31c67b69f3fb334494fc4eea531a17613e9260809287956040519384528984015260408301526060820152a36001600255604051908152f35b919550928682813d831161178f575b61175c8183611b0a565b8101031261021b5790519490927f92c132aa7d1b2f09c9f59923a498ae31c67b69f3fb334494fc4eea531a17613e6116f8565b503d611752565b83819492503d83116117ca575b6117ad8183611b0a565b8101031261021b576116dd976117c38a93611ba6565b90986116bb565b503d6117a3565b631f24644d60e21b5f5260045ffd5b9093508781813d8311611808575b6117f88183611b0a565b8101031261021b5751928861168e565b503d6117ee565b9093508781813d831161183f575b6118278183611b0a565b8101031261021b5761183890611ba6565b9288611652565b503d61181d565b503d805f833e6118568183611b0a565b81019060208183031261021b578051906001600160401b03821161021b5701906101808282031261021b576040519061018082018281106001600160401b03821117610c435760405282516001600160401b03811161021b57816118bb918501611b89565b82526020830151906001600160401b03821161021b576118dc918401611b89565b6020820152604082015191600883101561021b57610160611962916020946040850152606081015160608501526080810151608085015260a081015160a085015260c081015160c085015260e081015160e08501526101008101516101008501526101208101516101208501526119566101408201611b2b565b61014085015201611ba6565b6101608201526114e0565b6020813d60201161199c575b8161198660209383611b0a565b8101031261021b5761199790611b2b565b61148d565b3d9150611979565b6357a92a5160e01b5f5260045ffd5b632bfc877560e21b5f5260045ffd5b5060115482116113ca565b3461021b57602036600319011261021b576004359063ffffffff60e01b821680920361021b576020916385572ffb60e01b8114908115611a0f575b5015158152f35b6301ffc9a760e01b14905083611a08565b600435906001600160401b038216820361021b57565b602435906001600160401b038216820361021b57565b600435906001600160a01b038216820361021b57565b608090600319011261021b576004356001600160401b038116810361021b57906024356001600160a01b038116810361021b57906044356001600160a01b038116810361021b579060643590565b805180835260209291819084018484015e5f828201840152601f01601f1916010190565b60a081019081106001600160401b03821117610c4357604052565b60c081019081106001600160401b03821117610c4357604052565b90601f801991011681019081106001600160401b03821117610c4357604052565b5190811515820361021b57565b6001600160401b038111610c4357601f01601f191660200190565b929192611b5f82611b38565b91611b6d6040519384611b0a565b82948184528183011161021b578281602093845f96015e010152565b9080601f8301121561021b578151611ba392602001611b53565b90565b51906001600160a01b038216820361021b57565b906001600160401b039093929316815260406020820152611c00611bea845160a0604085015260e0840190611ab0565b6020850151838203603f19016060850152611ab0565b90604084015191603f19828203016080830152602080845192838152019301905f5b818110611c59575050506080611ba3939460018060a01b0360608201511660a084015201519060c0603f1982850301910152611ab0565b825180516001600160a01b031686526020908101518187015260409095019490920191600101611c22565b91908203918211611c9157565b634e487b7160e01b5f52601160045260245ffd5b9092939184831115611e8357611cbb8584611c84565b6127108102908082046127101490151715611c91578515611e6f57859004906014548210611e67577f79b341b4a17fcc7c95a791d3110a0d54297513c36754443c4ae781b1e6dfde5e946080946004611d8f604051602081019060018060a01b038916986001600160601b03199060601b1682526001600160401b038616956001600160401b0360c01b9060c01b1660348201526001600160401b038716966001600160401b0360c01b9060c01b16603c82015242604482015260448152611d84606482611b0a565b519020998a93611c84565b60405190611d9c82611aef565b878252602082018581526001600160401b036040840188815260608501928a84528c860194855260a0860197600189525f52601360205260405f209560018060a01b039060018060a01b03905116166001600160601b0360a01b875416178655518554908360a01b9060a01b16908360a01b191617855551166001600160401b036001850191166001600160401b0319825416179055516002830155516003820155019051151560ff80198354169116179055604051938452602084015260408301526060820152a2565b505050505050565b634e487b7160e01b5f52601260045260245ffd5b5050505050565b81601f8201121561021b57803590611ea182611b38565b92611eaf6040519485611b0a565b8284526020838301011161021b57815f926020809301838601378301015290565b6002805414611edf5760028055565b633ee5aeb560e01b5f5260045ffd5b60ff60035416611efa57565b63d93c066560e01b5f5260045ffd5b5f546001600160a01b03163303611f1c57565b60405162461bcd60e51b815260206004820152601660248201527527b7363c9031b0b63630b1363290313c9037bbb732b960511b6044820152606490fdfea264697066735822122008523c714d1af9cfe9ce5e4552ae3321df2e40739c42e4f0b41066df8222b60664736f6c634300081e0033","linkReferences":{}},"methodIdentifiers":{"acceptOwnership()":"79ba5097","allowlistedDestinationChains(uint64)":"75c67c66","allowlistedSenders(address)":"6159ada1","allowlistedSourceChains(uint64)":"4030d521","arbitrageOpportunities(bytes32)":"ae410125","arbitrageThreshold()":"dc20ba92","bridgeFee()":"82b12dd7","bridgePropertyTokens(uint64,address,address,uint256)":"0c0caf17","ccipReceive((bytes32,uint64,bytes,bytes,(address,uint256)[]))":"85572ffb","configureChain(uint64,address,address,uint256)":"682c6fc3","detectArbitrageOpportunity(address,uint64,uint64,uint256,uint256)":"635f28d1","emergencyWithdraw(address,uint256)":"95ccea67","emergencyWithdrawEth()":"22019a1c","getArbitrageOpportunity(bytes32)":"e82ae476","getChainConfig(uint64)":"b149092b","getLastReceivedMessageDetails()":"263596a5","getRouter()":"b0f479a1","getUserTotalBalance(address)":"7923076c","i_propertyToken()":"c949b41b","maxTransferAmount()":"a9e75723","minTransferAmount()":"68841431","owner()":"8da5cb5b","pause()":"8456cb59","paused()":"5c975abb","propertyIdToToken(bytes32)":"37e50943","propertyTokenOnChain(address,uint64)":"c50d49e2","supportedChains(uint64)":"f9c3f332","supportsInterface(bytes4)":"01ffc9a7","transferOwnership(address)":"f2fde38b","unpause()":"3f4ba83a","updateBridgeFee(uint256)":"5a1c0366","updateTransferLimits(uint256,uint256)":"cfbc3cfd","userBalanceOnChain(address,uint64)":"90952b0f","userTotalBalance(address)":"821a3e67"},"id":55}