{"abi":[{"type":"constructor","inputs":[{"name":"propertyTokenAddress","type":"address","internalType":"address"}],"stateMutability":"nonpayable"},{"type":"function","name":"MAINTENANCE_CHECK_INTERVAL","inputs":[],"outputs":[{"name":"","type":"uint256","internalType":"uint256"}],"stateMutability":"view"},{"type":"function","name":"PERCENTAGE_PRECISION","inputs":[],"outputs":[{"name":"","type":"uint256","internalType":"uint256"}],"stateMutability":"view"},{"type":"function","name":"REBALANCE_THRESHOLD","inputs":[],"outputs":[{"name":"","type":"uint256","internalType":"uint256"}],"stateMutability":"view"},{"type":"function","name":"RENT_COLLECTION_INTERVAL","inputs":[],"outputs":[{"name":"","type":"uint256","internalType":"uint256"}],"stateMutability":"view"},{"type":"function","name":"VALUATION_UPDATE_INTERVAL","inputs":[],"outputs":[{"name":"","type":"uint256","internalType":"uint256"}],"stateMutability":"view"},{"type":"function","name":"_safeExecuteTask","inputs":[{"name":"task","type":"tuple","internalType":"struct PropertyAutomation.AutomationTask","components":[{"name":"propertyAddress","type":"address","internalType":"address"},{"name":"taskType","type":"uint8","internalType":"enum PropertyAutomation.AutomationTaskType"},{"name":"scheduledTime","type":"uint256","internalType":"uint256"},{"name":"lastExecuted","type":"uint256","internalType":"uint256"},{"name":"isActive","type":"bool","internalType":"bool"},{"name":"executionData","type":"bytes","internalType":"bytes"}]}],"outputs":[],"stateMutability":"nonpayable"},{"type":"function","name":"automationTasks","inputs":[{"name":"","type":"uint256","internalType":"uint256"}],"outputs":[{"name":"propertyAddress","type":"address","internalType":"address"},{"name":"taskType","type":"uint8","internalType":"enum PropertyAutomation.AutomationTaskType"},{"name":"scheduledTime","type":"uint256","internalType":"uint256"},{"name":"lastExecuted","type":"uint256","internalType":"uint256"},{"name":"isActive","type":"bool","internalType":"bool"},{"name":"executionData","type":"bytes","internalType":"bytes"}],"stateMutability":"view"},{"type":"function","name":"checkUpkeep","inputs":[{"name":"","type":"bytes","internalType":"bytes"}],"outputs":[{"name":"upkeepNeeded","type":"bool","internalType":"bool"},{"name":"performData","type":"bytes","internalType":"bytes"}],"stateMutability":"view"},{"type":"function","name":"getPendingTasksCount","inputs":[],"outputs":[{"name":"pendingCount","type":"uint256","internalType":"uint256"}],"stateMutability":"view"},{"type":"function","name":"getPropertySchedule","inputs":[{"name":"propertyAddress","type":"address","internalType":"address"}],"outputs":[{"name":"schedule","type":"tuple","internalType":"struct PropertyAutomation.PropertySchedule","components":[{"name":"nextRentCollection","type":"uint256","internalType":"uint256"},{"name":"nextValuationUpdate","type":"uint256","internalType":"uint256"},{"name":"nextMaintenanceCheck","type":"uint256","internalType":"uint256"},{"name":"rentCollectionInterval","type":"uint256","internalType":"uint256"},{"name":"valuationInterval","type":"uint256","internalType":"uint256"},{"name":"maintenanceInterval","type":"uint256","internalType":"uint256"}]}],"stateMutability":"view"},{"type":"function","name":"i_propertyToken","inputs":[],"outputs":[{"name":"","type":"address","internalType":"contract PropertyToken"}],"stateMutability":"view"},{"type":"function","name":"isPropertyRegistered","inputs":[{"name":"propertyAddress","type":"address","internalType":"address"}],"outputs":[{"name":"isRegistered","type":"bool","internalType":"bool"}],"stateMutability":"view"},{"type":"function","name":"lastGlobalExecution","inputs":[{"name":"","type":"uint8","internalType":"enum PropertyAutomation.AutomationTaskType"}],"outputs":[{"name":"","type":"uint256","internalType":"uint256"}],"stateMutability":"view"},{"type":"function","name":"lastPropertyExecution","inputs":[{"name":"","type":"address","internalType":"address"},{"name":"","type":"uint8","internalType":"enum PropertyAutomation.AutomationTaskType"}],"outputs":[{"name":"","type":"uint256","internalType":"uint256"}],"stateMutability":"view"},{"type":"function","name":"manualPropertyValuation","inputs":[{"name":"propertyAddress","type":"address","internalType":"address"}],"outputs":[],"stateMutability":"nonpayable"},{"type":"function","name":"manualRentCollection","inputs":[{"name":"propertyAddress","type":"address","internalType":"address"}],"outputs":[],"stateMutability":"nonpayable"},{"type":"function","name":"nextTaskId","inputs":[],"outputs":[{"name":"","type":"uint256","internalType":"uint256"}],"stateMutability":"view"},{"type":"function","name":"owner","inputs":[],"outputs":[{"name":"","type":"address","internalType":"address"}],"stateMutability":"view"},{"type":"function","name":"pausePropertyAutomation","inputs":[{"name":"propertyAddress","type":"address","internalType":"address"}],"outputs":[],"stateMutability":"nonpayable"},{"type":"function","name":"performUpkeep","inputs":[{"name":"performData","type":"bytes","internalType":"bytes"}],"outputs":[],"stateMutability":"nonpayable"},{"type":"function","name":"propertySchedules","inputs":[{"name":"","type":"address","internalType":"address"}],"outputs":[{"name":"nextRentCollection","type":"uint256","internalType":"uint256"},{"name":"nextValuationUpdate","type":"uint256","internalType":"uint256"},{"name":"nextMaintenanceCheck","type":"uint256","internalType":"uint256"},{"name":"rentCollectionInterval","type":"uint256","internalType":"uint256"},{"name":"valuationInterval","type":"uint256","internalType":"uint256"},{"name":"maintenanceInterval","type":"uint256","internalType":"uint256"}],"stateMutability":"view"},{"type":"function","name":"registerPropertyForAutomation","inputs":[{"name":"propertyAddress","type":"address","internalType":"address"},{"name":"customRentInterval","type":"uint256","internalType":"uint256"},{"name":"customValuationInterval","type":"uint256","internalType":"uint256"},{"name":"customMaintenanceInterval","type":"uint256","internalType":"uint256"}],"outputs":[],"stateMutability":"nonpayable"},{"type":"function","name":"registeredProperties","inputs":[{"name":"","type":"address","internalType":"address"}],"outputs":[{"name":"","type":"bool","internalType":"bool"}],"stateMutability":"view"},{"type":"function","name":"renounceOwnership","inputs":[],"outputs":[],"stateMutability":"nonpayable"},{"type":"function","name":"resumePropertyAutomation","inputs":[{"name":"propertyAddress","type":"address","internalType":"address"}],"outputs":[],"stateMutability":"nonpayable"},{"type":"function","name":"totalActiveTasks","inputs":[],"outputs":[{"name":"","type":"uint256","internalType":"uint256"}],"stateMutability":"view"},{"type":"function","name":"transferOwnership","inputs":[{"name":"newOwner","type":"address","internalType":"address"}],"outputs":[],"stateMutability":"nonpayable"},{"type":"function","name":"updatePropertySchedule","inputs":[{"name":"propertyAddress","type":"address","internalType":"address"},{"name":"newRentInterval","type":"uint256","internalType":"uint256"},{"name":"newValuationInterval","type":"uint256","internalType":"uint256"},{"name":"newMaintenanceInterval","type":"uint256","internalType":"uint256"}],"outputs":[],"stateMutability":"nonpayable"},{"type":"event","name":"AutomationTaskExecuted","inputs":[{"name":"taskId","type":"uint256","indexed":true,"internalType":"uint256"},{"name":"property","type":"address","indexed":true,"internalType":"address"},{"name":"taskType","type":"uint8","indexed":false,"internalType":"enum PropertyAutomation.AutomationTaskType"},{"name":"success","type":"bool","indexed":false,"internalType":"bool"},{"name":"returnData","type":"bytes","indexed":false,"internalType":"bytes"}],"anonymous":false},{"type":"event","name":"AutomationTaskScheduled","inputs":[{"name":"taskId","type":"uint256","indexed":true,"internalType":"uint256"},{"name":"property","type":"address","indexed":true,"internalType":"address"},{"name":"taskType","type":"uint8","indexed":false,"internalType":"enum PropertyAutomation.AutomationTaskType"},{"name":"scheduledTime","type":"uint256","indexed":false,"internalType":"uint256"}],"anonymous":false},{"type":"event","name":"MaintenanceCheckScheduled","inputs":[{"name":"property","type":"address","indexed":true,"internalType":"address"},{"name":"scheduledDate","type":"uint256","indexed":false,"internalType":"uint256"}],"anonymous":false},{"type":"event","name":"OwnershipTransferred","inputs":[{"name":"previousOwner","type":"address","indexed":true,"internalType":"address"},{"name":"newOwner","type":"address","indexed":true,"internalType":"address"}],"anonymous":false},{"type":"event","name":"PortfolioRebalanceNeeded","inputs":[{"name":"property","type":"address","indexed":true,"internalType":"address"},{"name":"currentRatio","type":"uint256","indexed":false,"internalType":"uint256"},{"name":"targetRatio","type":"uint256","indexed":false,"internalType":"uint256"}],"anonymous":false},{"type":"event","name":"PropertyRegisteredForAutomation","inputs":[{"name":"property","type":"address","indexed":true,"internalType":"address"},{"name":"rentCollectionInterval","type":"uint256","indexed":false,"internalType":"uint256"},{"name":"valuationInterval","type":"uint256","indexed":false,"internalType":"uint256"},{"name":"maintenanceInterval","type":"uint256","indexed":false,"internalType":"uint256"}],"anonymous":false},{"type":"event","name":"PropertyValuationTriggered","inputs":[{"name":"property","type":"address","indexed":true,"internalType":"address"},{"name":"timestamp","type":"uint256","indexed":false,"internalType":"uint256"}],"anonymous":false},{"type":"event","name":"RentCollectionTriggered","inputs":[{"name":"property","type":"address","indexed":true,"internalType":"address"},{"name":"timestamp","type":"uint256","indexed":false,"internalType":"uint256"}],"anonymous":false},{"type":"error","name":"OwnableInvalidOwner","inputs":[{"name":"owner","type":"address","internalType":"address"}]},{"type":"error","name":"OwnableUnauthorizedAccount","inputs":[{"name":"account","type":"address","internalType":"address"}]},{"type":"error","name":"PropertyAutomation__InsufficientFunds","inputs":[]},{"type":"error","name":"PropertyAutomation__InvalidPropertyContract","inputs":[]},{"type":"error","name":"PropertyAutomation__TaskExecutionFailed","inputs":[]},{"type":"error","name":"PropertyAutomation__UpkeepNotNeeded","inputs":[]},{"type":"error","name":"ReentrancyGuardReentrantCall","inputs":[]}],"bytecode":{"object":"0x60a0346100ff57601f611a3b38819003918201601f19168301916001600160401b03831184841017610103578084926020946040528339810103126100ff57516001600160a01b038116908190036100ff5733156100ec575f8054336001600160a01b0319821681178355604051939290916001600160a01b0316907f8be0079c531659141344cd1fd0a4f28419497f9722a3daafe3b4186f6b6457e09080a36001805580156100dd57608052611923908161011882396080518181816102eb0152818161067c01528181610e80015281816117ad01526118640152f35b63cb7cfa0d60e01b5f5260045ffd5b631e4fbdf760e01b5f525f60045260245ffd5b5f80fd5b634e487b7160e01b5f52604160045260245ffdfe6080806040526004361015610012575f80fd5b5f3560e01c90816304884d4e1461134957508063157ddbd5146113275780632102d96d14611258578063218ef725146111345780632b2c9b48146110b15780633191e94f1461104257806333e2fbb91461102557806336191cef14610e5f57806339690b3b1461018e5780633c1d490714610e1b5780634585e33b14610b945780636d45e31414610b615780636e04ff0d14610636578063715018a6146105df578063765631c41461059e5780638da5cb5b1461057757806394820559146104f0578063a55c7608146103a0578063be94c30014610336578063c85b967d1461031a578063c949b41b146102d6578063d9fa2b74146102b9578063e256888f1461029d578063f221c5aa14610250578063f2fde38b146101cb578063fd956c851461018e578063fdc3d8d7146101715763ff7e307114610150575f80fd5b3461016d575f36600319011261016d5760206040516276a7008152f35b5f80fd5b3461016d575f36600319011261016d576020600554604051908152f35b3461016d57602036600319011261016d576001600160a01b036101af611364565b165f526004602052602060ff60405f2054166040519015158152f35b3461016d57602036600319011261016d576101e4611364565b6101ec611759565b6001600160a01b0316801561023d575f80546001600160a01b03198116831782556001600160a01b0316907f8be0079c531659141344cd1fd0a4f28419497f9722a3daafe3b4186f6b6457e09080a3005b631e4fbdf760e01b5f525f60045260245ffd5b3461016d57604036600319011261016d57610269611364565b60243590600682101561016d576020916102949160018060a01b03165f526008835260405f2061150f565b54604051908152f35b3461016d575f36600319011261016d5760206040516127108152f35b3461016d575f36600319011261016d57602060405162ed4e008152f35b3461016d575f36600319011261016d576040517f00000000000000000000000000000000000000000000000000000000000000006001600160a01b03168152602090f35b3461016d575f36600319011261016d5760206040516101f48152f35b3461016d576103443661137a565b92610350929192611759565b6001600160a01b03165f8181526004602052604090205490929060ff1615610391576005925f52600360205260405f20916003830155600482015501555f80f35b63cb7cfa0d60e01b5f5260045ffd5b3461016d57602036600319011261016d576004355f52600260205260405f2080546001820154916002810154600460ff600384015416920193604051945f908054908160011c916001811680156104e6575b6020841081146104d257838a529081156104ab575060011461046e575b6104488761046a8a898989610426848b03856113c4565b6040516001600160a01b0387168152968796602088019060a01c60ff16611549565b604086015260608501521515608084015260c060a084015260c0830190611525565b0390f35b5f908152602081209092505b81831061049157505085016020018161042661040f565b6001816020929493945483858c010152019101919061047a565b60ff19166020808b019190915292151560051b89019092019250839150610426905061040f565b634e487b7160e01b5f52602260045260245ffd5b92607f16926103f2565b3461016d57602036600319011261016d57610509611364565b610511611759565b6001600160a01b0381165f8181526004602052604090205490919060ff16156103915761053d9061177f565b805f52600860205260405f2060025f5260205260405f204290555f52600360205260405f206001610572600483015442611556565b910155005b3461016d575f36600319011261016d575f546040516001600160a01b039091168152602090f35b3461016d57602036600319011261016d576105b7611364565b6105bf611759565b6001600160a01b03165f908152600460205260409020805460ff19169055005b3461016d575f36600319011261016d576105f7611759565b5f80546001600160a01b0319811682556001600160a01b03167f8be0079c531659141344cd1fd0a4f28419497f9722a3daafe3b4186f6b6457e08280a3005b3461016d57610644366114be565b5050604051606061016061065881846113c4565b600a8352601f19015f5b818110610b1357505060405163603ddf1160e01b8152905f7f00000000000000000000000000000000000000000000000000000000000000006001600160a01b0316602084600481845afa938415610abf575f94610adf575b505f5b84811080610ad5575b15610aca5760405163640e259360e11b815260048101829052602081602481865afa908115610abf575f91610a91575b506001600160a01b03165f8181526004602052604090205460ff1615610a8757805f52600360205260405f2060405161072f816113a8565b81548082526001830154916020810192835260a060056002860154956040840196875260038101548c850152600481015460808501520154910152804210156109fa575b50518042101561096c575b505180421015610799575b5050610794906116ae565b6106be565b90610811929491815f52600860205260405f2060035f5260205260405f205490604051926107c6846113a8565b8352600360208401526040830152868201526001608082015260206107ee60405191826113c4565b5f815260a082015261080082896116d4565b5261080b81886116d4565b506116ae565b91600a831015610822578680610789565b5050929091505b8215159283610851575b828461046a6040519283928352604060208401526040830190611525565b61085a816116bc565b9161086860405193846113c4565b818352601f19610877836116bc565b015f5b8181106109325750505f5b828110610908575050509060405180926040820160208084015281518091526020848401948260051b8501019201935f905b8282106108db575050506108d4925003601f1981018352826113c4565b8280610833565b919350916020806108f8600193605f198a820301865288516116fc565b96019201920185939194926108b7565b80610915600192846116d4565b5161092082876116d4565b5261092b81866116d4565b5001610885565b602090604051610941816113a8565b5f81525f838201525f60408201525f888201525f60808201528760a08201528282880101520161087a565b946109dd9195835f52600860205260405f2060025f5260205260405f205460405191610997836113a8565b858352600260208401526040830152888201526001608082015260206109c060405191826113c4565b5f815260a08201526109d2828b6116d4565b5261080b818a6116d4565b93600a8510156109ed578861077e565b5050505092909150610829565b95610a699196845f52600860205260405f205f805260205260405f205460405191610a24836113a8565b8683525f6020840152604083015289820152600160808201526020610a4c60405191826113c4565b5f815260a0820152610a5e828c6116d4565b5261080b818b6116d4565b94600a861015610a795789610773565b505050505092909150610829565b50610794906116ae565b610ab2915060203d8111610ab8575b610aaa81836113c4565b81019061168f565b876106f7565b503d610aa0565b6040513d5f823e3d90fd5b505092909150610829565b50600a83106106c7565b9093506020813d602011610b0b575b81610afb602093836113c4565b8101031261016d575192856106bb565b3d9150610aee565b602090604051610b22816113a8565b5f81525f838201525f60408201525f858201525f60808201528460a082015282828701015201610662565b634e487b7160e01b5f52604160045260245ffd5b3461016d57602036600319011261016d57600435600681101561016d575f526007602052602060405f2054604051908152f35b3461016d57610ba2366114be565b600260015414610e0c57600260015581019060208183031261016d5780359067ffffffffffffffff821161016d57019080601f8301121561016d578135610be8816116bc565b92610bf660405194856113c4565b81845260208085019260051b8201019183831161016d5760208201905b838210610dde57855f5b8151811015610dd857610c3081836116d4565b5190303b1561016d5760405163218ef72560e01b8152602060048201525f8180610c5d60248201876116fc565b038183305af19081610dc8575b50610dbf575f91825b610d05575b6005548151602090920151916001600160a01b03166006831015610cf157817f39fe4e543f45e29315b471153efdfc3124ac77bef3dd172f0cd943d35e9a5bc96080610ce895600198610cce6040518093611549565b15156020820152606060408201525f6060820152a36116ae565b60055501610c1d565b634e487b7160e01b5f52602160045260245ffd5b60018060a01b038151165f52600860205260405f20602082019081516006811015610cf157610d3590429261150f565b5581519051906001600160a01b03166006821015610cf1575f52600360205260405f209080155f14610d775750610d70600382015442611556565b9055610c78565b60028103610d9857506001610d90600483015442611556565b910155610c78565b600314610da6575b50610c78565b6002610db6600583015442611556565b91015584610da0565b60019182610c73565b5f610dd2916113c4565b84610c6a565b60018055005b813567ffffffffffffffff811161016d57602091610e01878480948801016113e6565b815201910190610c13565b633ee5aeb560e01b5f5260045ffd5b3461016d57602036600319011261016d57610e34611364565b610e3c611759565b6001600160a01b03165f908152600460205260409020805460ff19166001179055005b3461016d575f36600319011261016d5760405163603ddf1160e01b81525f907f00000000000000000000000000000000000000000000000000000000000000006001600160a01b0316602082600481845afa918215610abf575f92610ff1575b505f5b828110610ed457602084604051908152f35b60405163640e259360e11b815260048101829052602081602481865afa908115610abf575f91610fd3575b506001600160a01b03165f8181526004602052604090205460ff1615610fca575f52600360205260405f20604051610f36816113a8565b81548082526001830154916020810192835260a060056002860154956040840196875260038101546060850152600481015460808501520154910152421015610fba575b51421015610faa575b51421015610f96575b6001905b01610ec2565b92610fa26001916116ae565b939050610f8c565b93610fb4906116ae565b93610f83565b94610fc4906116ae565b94610f7a565b50600190610f90565b610feb915060203d8111610ab857610aaa81836113c4565b85610eff565b9091506020813d60201161101d575b8161100d602093836113c4565b8101031261016d57519083610ebf565b3d9150611000565b3461016d575f36600319011261016d576020600654604051908152f35b3461016d57602036600319011261016d576001600160a01b03611063611364565b165f52600360205260c060405f2080549060018101549060028101546003820154906005600484015493015493604051958652602086015260408501526060840152608083015260a0820152f35b3461016d57602036600319011261016d576110ca611364565b6110d2611759565b6001600160a01b0381165f8181526004602052604090205490919060ff1615610391576110fe90611836565b805f52600860205260405f205f805260205260405f204290555f52600360205260405f20611130600382015442611556565b9055005b3461016d57602036600319011261016d5760043567ffffffffffffffff811161016d576111659036906004016113e6565b303303611227576020810180516006811015610cf157611195575051611193906001600160a01b0316611836565b005b80516006811015610cf1576002036111bb575051611193906001600160a01b031661177f565b516006811015610cf1576003146111ce57005b516001600160a01b03164262ed4e0081019081106112135760207f11884ed0ca7afc8a23ae241efbdd9af86e9f2cf1c424202e7e87f5f3c3f4e60391604051908152a2005b634e487b7160e01b5f52601160045260245ffd5b60405162461bcd60e51b815260206004820152600960248201526827b7363c9039b2b63360b91b6044820152606490fd5b3461016d57602036600319011261016d57611271611364565b5f60a0604051611280816113a8565b828152826020820152826040820152826060820152826080820152015260018060a01b03165f52600360205260c060405f206040516112be816113a8565b8154918282526001810154602083019081526002820154604084019081526003830154916060850192835260a0600560048601549560808801968752015495019485526040519586525160208601525160408501525160608401525160808301525160a0820152f35b3461016d576111936113383661137a565b92611344929192611759565b611563565b3461016d575f36600319011261016d578062278d0060209252f35b600435906001600160a01b038216820361016d57565b608090600319011261016d576004356001600160a01b038116810361016d5790602435906044359060643590565b60c0810190811067ffffffffffffffff821117610b4d57604052565b90601f8019910116810190811067ffffffffffffffff821117610b4d57604052565b919060c08382031261016d576040516113fe816113a8565b92839080356001600160a01b038116810361016d5782526020810135600681101561016d57602083015260408101356040830152606081013560608301526080810135801515810361016d57608083015260a08101359067ffffffffffffffff821161016d57019082601f8301121561016d57813567ffffffffffffffff8111610b4d576040519361149a601f8301601f1916602001866113c4565b8185526020828501011161016d576020815f928260a0960183880137850101520152565b90602060031983011261016d5760043567ffffffffffffffff811161016d578260238201121561016d5780600401359267ffffffffffffffff841161016d576024848301011161016d576024019190565b906006811015610cf1575f5260205260405f2090565b805180835260209291819084018484015e5f828201840152601f01601f1916010190565b906006821015610cf15752565b9190820180921161121357565b6001600160a01b03165f818152600460205260409020549093929060ff16611689577f2a16836b7ce7ea69ef3dd0fdc0afb83806fc9b029fcd7ac9f3a96bd659fe54149260609280611683575062278d00915b8061167d57506276a700905b80611677575062ed4e00905b6115d88342611556565b60056115e48342611556565b6115ee8542611556565b604051936115fb856113a8565b84526020840191825260408401908152878401878152608085019186835260a08601938885528c5f52600360205260405f209651875551600187015551600286015551600385015551600484015551910155855f52600460205260405f20600160ff1982541617905560405192835260208301526040820152a2565b906115ce565b906115c2565b916115b6565b50505050565b9081602091031261016d57516001600160a01b038116810361016d5790565b5f1981146112135760010190565b67ffffffffffffffff8111610b4d5760051b60200190565b80518210156116e85760209160051b010190565b634e487b7160e01b5f52603260045260245ffd5b80516001600160a01b03168252602080820151611756939260c09260a09261172691860190611549565b60408101516040850152606081015160608501526080810151151560808501520151918160a08201520190611525565b90565b5f546001600160a01b0316330361176c57565b63118cdaa760e01b5f523360045260245ffd5b60405163053a631360e41b81526001600160a01b039182166004820181905291602090829060249082905f907f0000000000000000000000000000000000000000000000000000000000000000165af18015610abf57611807575b507f83f3a2e5327f501dfede020ca68bc0c3b093d581d6ebbc2f6e66c333c5e21e7b6020604051428152a2565b6020813d60201161182e575b81611820602093836113c4565b8101031261016d57516117da565b3d9150611813565b6040516309100b2960e01b81526001600160a01b039182166004820181905291602090829060249082905f907f0000000000000000000000000000000000000000000000000000000000000000165af18015610abf576118be575b507fd9a997a798705b802de5f9bc97cb948e476d1af56aeaaccb4b9c6bc9bc20438b6020604051428152a2565b6020813d6020116118e5575b816118d7602093836113c4565b8101031261016d5751611891565b3d91506118ca56fea2646970667358221220ca2b8199a4de822a4b331cdd3ee688ffdf02afeeaaa9de4b1c21b36eff1bc52e64736f6c634300081e0033","linkReferences":{}},"methodIdentifiers":{"MAINTENANCE_CHECK_INTERVAL()":"d9fa2b74","PERCENTAGE_PRECISION()":"e256888f","REBALANCE_THRESHOLD()":"c85b967d","RENT_COLLECTION_INTERVAL()":"04884d4e","VALUATION_UPDATE_INTERVAL()":"ff7e3071","_safeExecuteTask((address,uint8,uint256,uint256,bool,bytes))":"218ef725","automationTasks(uint256)":"a55c7608","checkUpkeep(bytes)":"6e04ff0d","getPendingTasksCount()":"36191cef","getPropertySchedule(address)":"2102d96d","i_propertyToken()":"c949b41b","isPropertyRegistered(address)":"39690b3b","lastGlobalExecution(uint8)":"6d45e314","lastPropertyExecution(address,uint8)":"f221c5aa","manualPropertyValuation(address)":"94820559","manualRentCollection(address)":"2b2c9b48","nextTaskId()":"fdc3d8d7","owner()":"8da5cb5b","pausePropertyAutomation(address)":"765631c4","performUpkeep(bytes)":"4585e33b","propertySchedules(address)":"3191e94f","registerPropertyForAutomation(address,uint256,uint256,uint256)":"157ddbd5","registeredProperties(address)":"fd956c85","renounceOwnership()":"715018a6","resumePropertyAutomation(address)":"3c1d4907","totalActiveTasks()":"33e2fbb9","transferOwnership(address)":"f2fde38b","updatePropertySchedule(address,uint256,uint256,uint256)":"be94c300"},"id":54}