{"abi":[{"type":"constructor","inputs":[{"name":"ethUsdFeed","type":"address","internalType":"address"},{"name":"mainPropertyToken","type":"address","internalType":"address"},{"name":"tokenName","type":"string","internalType":"string"},{"name":"tokenSymbol","type":"string","internalType":"string"}],"stateMutability":"nonpayable"},{"type":"receive","stateMutability":"payable"},{"type":"function","name":"ADDITIONAL_FEED_PRECISION","inputs":[],"outputs":[{"name":"","type":"uint256","internalType":"uint256"}],"stateMutability":"view"},{"type":"function","name":"DECIMALS","inputs":[],"outputs":[{"name":"","type":"uint256","internalType":"uint256"}],"stateMutability":"view"},{"type":"function","name":"DEFAULT_LIQUIDATION_THRESHOLD","inputs":[],"outputs":[{"name":"","type":"uint256","internalType":"uint256"}],"stateMutability":"view"},{"type":"function","name":"LIQUIDATION_BONUS","inputs":[],"outputs":[{"name":"","type":"uint256","internalType":"uint256"}],"stateMutability":"view"},{"type":"function","name":"LIQUIDATION_PRECISION","inputs":[],"outputs":[{"name":"","type":"uint256","internalType":"uint256"}],"stateMutability":"view"},{"type":"function","name":"MAX_LEVERAGE","inputs":[],"outputs":[{"name":"","type":"uint256","internalType":"uint256"}],"stateMutability":"view"},{"type":"function","name":"MIN_HEALTH_FACTOR","inputs":[],"outputs":[{"name":"","type":"uint256","internalType":"uint256"}],"stateMutability":"view"},{"type":"function","name":"MIN_POSITION_USD","inputs":[],"outputs":[{"name":"","type":"uint256","internalType":"uint256"}],"stateMutability":"view"},{"type":"function","name":"PRECISION","inputs":[],"outputs":[{"name":"","type":"uint256","internalType":"uint256"}],"stateMutability":"view"},{"type":"function","name":"addSupportedProperty","inputs":[{"name":"propertyToken","type":"address","internalType":"address"},{"name":"liquidationThreshold","type":"uint256","internalType":"uint256"},{"name":"maxLeverage","type":"uint256","internalType":"uint256"},{"name":"mintingFee","type":"uint256","internalType":"uint256"},{"name":"minPosition","type":"uint256","internalType":"uint256"}],"outputs":[],"stateMutability":"nonpayable"},{"type":"function","name":"allowance","inputs":[{"name":"owner","type":"address","internalType":"address"},{"name":"spender","type":"address","internalType":"address"}],"outputs":[{"name":"","type":"uint256","internalType":"uint256"}],"stateMutability":"view"},{"type":"function","name":"approve","inputs":[{"name":"spender","type":"address","internalType":"address"},{"name":"value","type":"uint256","internalType":"uint256"}],"outputs":[{"name":"","type":"bool","internalType":"bool"}],"stateMutability":"nonpayable"},{"type":"function","name":"balanceOf","inputs":[{"name":"account","type":"address","internalType":"address"}],"outputs":[{"name":"","type":"uint256","internalType":"uint256"}],"stateMutability":"view"},{"type":"function","name":"closeSyntheticPosition","inputs":[{"name":"positionId","type":"uint256","internalType":"uint256"}],"outputs":[],"stateMutability":"nonpayable"},{"type":"function","name":"decimals","inputs":[],"outputs":[{"name":"","type":"uint8","internalType":"uint8"}],"stateMutability":"view"},{"type":"function","name":"getPositionHealthFactor","inputs":[{"name":"user","type":"address","internalType":"address"},{"name":"positionId","type":"uint256","internalType":"uint256"}],"outputs":[{"name":"","type":"uint256","internalType":"uint256"}],"stateMutability":"view"},{"type":"function","name":"getPositionPnL","inputs":[{"name":"user","type":"address","internalType":"address"},{"name":"positionId","type":"uint256","internalType":"uint256"}],"outputs":[{"name":"pnl","type":"uint256","internalType":"uint256"},{"name":"isProfitable","type":"bool","internalType":"bool"}],"stateMutability":"view"},{"type":"function","name":"getUserActivePositions","inputs":[{"name":"user","type":"address","internalType":"address"}],"outputs":[{"name":"positions","type":"uint256[]","internalType":"uint256[]"}],"stateMutability":"view"},{"type":"function","name":"i_mainPropertyToken","inputs":[],"outputs":[{"name":"","type":"address","internalType":"contract PropertyToken"}],"stateMutability":"view"},{"type":"function","name":"liquidatePosition","inputs":[{"name":"user","type":"address","internalType":"address"},{"name":"positionId","type":"uint256","internalType":"uint256"}],"outputs":[],"stateMutability":"nonpayable"},{"type":"function","name":"liquidationPool","inputs":[],"outputs":[{"name":"","type":"uint256","internalType":"uint256"}],"stateMutability":"view"},{"type":"function","name":"name","inputs":[],"outputs":[{"name":"","type":"string","internalType":"string"}],"stateMutability":"view"},{"type":"function","name":"openSyntheticPosition","inputs":[{"name":"propertyToken","type":"address","internalType":"address"},{"name":"positionType","type":"uint8","internalType":"enum SyntheticProperty.PositionType"},{"name":"syntheticAmount","type":"uint256","internalType":"uint256"},{"name":"leverageRatio","type":"uint256","internalType":"uint256"}],"outputs":[],"stateMutability":"payable"},{"type":"function","name":"owner","inputs":[],"outputs":[{"name":"","type":"address","internalType":"address"}],"stateMutability":"view"},{"type":"function","name":"pause","inputs":[],"outputs":[],"stateMutability":"nonpayable"},{"type":"function","name":"paused","inputs":[],"outputs":[{"name":"","type":"bool","internalType":"bool"}],"stateMutability":"view"},{"type":"function","name":"propertyList","inputs":[{"name":"","type":"uint256","internalType":"uint256"}],"outputs":[{"name":"","type":"address","internalType":"address"}],"stateMutability":"view"},{"type":"function","name":"renounceOwnership","inputs":[],"outputs":[],"stateMutability":"nonpayable"},{"type":"function","name":"supportedProperties","inputs":[{"name":"","type":"address","internalType":"address"}],"outputs":[{"name":"propertyToken","type":"address","internalType":"address"},{"name":"isSupported","type":"bool","internalType":"bool"},{"name":"liquidationThreshold","type":"uint256","internalType":"uint256"},{"name":"maxLeverage","type":"uint256","internalType":"uint256"},{"name":"mintingFee","type":"uint256","internalType":"uint256"},{"name":"minPosition","type":"uint256","internalType":"uint256"}],"stateMutability":"view"},{"type":"function","name":"symbol","inputs":[],"outputs":[{"name":"","type":"string","internalType":"string"}],"stateMutability":"view"},{"type":"function","name":"totalCollateralValue","inputs":[],"outputs":[{"name":"","type":"uint256","internalType":"uint256"}],"stateMutability":"view"},{"type":"function","name":"totalSupply","inputs":[],"outputs":[{"name":"","type":"uint256","internalType":"uint256"}],"stateMutability":"view"},{"type":"function","name":"totalSupportedProperties","inputs":[],"outputs":[{"name":"","type":"uint256","internalType":"uint256"}],"stateMutability":"view"},{"type":"function","name":"totalSyntheticValue","inputs":[],"outputs":[{"name":"","type":"uint256","internalType":"uint256"}],"stateMutability":"view"},{"type":"function","name":"transfer","inputs":[{"name":"to","type":"address","internalType":"address"},{"name":"value","type":"uint256","internalType":"uint256"}],"outputs":[{"name":"","type":"bool","internalType":"bool"}],"stateMutability":"nonpayable"},{"type":"function","name":"transferFrom","inputs":[{"name":"from","type":"address","internalType":"address"},{"name":"to","type":"address","internalType":"address"},{"name":"value","type":"uint256","internalType":"uint256"}],"outputs":[{"name":"","type":"bool","internalType":"bool"}],"stateMutability":"nonpayable"},{"type":"function","name":"transferOwnership","inputs":[{"name":"newOwner","type":"address","internalType":"address"}],"outputs":[],"stateMutability":"nonpayable"},{"type":"function","name":"unpause","inputs":[],"outputs":[],"stateMutability":"nonpayable"},{"type":"function","name":"userPositionCount","inputs":[{"name":"","type":"address","internalType":"address"}],"outputs":[{"name":"","type":"uint256","internalType":"uint256"}],"stateMutability":"view"},{"type":"function","name":"userPositions","inputs":[{"name":"","type":"address","internalType":"address"},{"name":"","type":"uint256","internalType":"uint256"}],"outputs":[{"name":"propertyToken","type":"address","internalType":"address"},{"name":"positionType","type":"uint8","internalType":"enum SyntheticProperty.PositionType"},{"name":"syntheticAmount","type":"uint256","internalType":"uint256"},{"name":"collateralAmount","type":"uint256","internalType":"uint256"},{"name":"entryPrice","type":"uint256","internalType":"uint256"},{"name":"timestamp","type":"uint256","internalType":"uint256"},{"name":"isActive","type":"bool","internalType":"bool"},{"name":"leverageRatio","type":"uint256","internalType":"uint256"}],"stateMutability":"view"},{"type":"function","name":"userTotalCollateral","inputs":[{"name":"","type":"address","internalType":"address"}],"outputs":[{"name":"","type":"uint256","internalType":"uint256"}],"stateMutability":"view"},{"type":"function","name":"withdrawLiquidationPool","inputs":[{"name":"amount","type":"uint256","internalType":"uint256"}],"outputs":[],"stateMutability":"nonpayable"},{"type":"event","name":"Approval","inputs":[{"name":"owner","type":"address","indexed":true,"internalType":"address"},{"name":"spender","type":"address","indexed":true,"internalType":"address"},{"name":"value","type":"uint256","indexed":false,"internalType":"uint256"}],"anonymous":false},{"type":"event","name":"CollateralDeposited","inputs":[{"name":"user","type":"address","indexed":true,"internalType":"address"},{"name":"amount","type":"uint256","indexed":false,"internalType":"uint256"}],"anonymous":false},{"type":"event","name":"CollateralWithdrawn","inputs":[{"name":"user","type":"address","indexed":true,"internalType":"address"},{"name":"amount","type":"uint256","indexed":false,"internalType":"uint256"}],"anonymous":false},{"type":"event","name":"OwnershipTransferred","inputs":[{"name":"previousOwner","type":"address","indexed":true,"internalType":"address"},{"name":"newOwner","type":"address","indexed":true,"internalType":"address"}],"anonymous":false},{"type":"event","name":"Paused","inputs":[{"name":"account","type":"address","indexed":false,"internalType":"address"}],"anonymous":false},{"type":"event","name":"PositionLiquidated","inputs":[{"name":"user","type":"address","indexed":true,"internalType":"address"},{"name":"positionId","type":"uint256","indexed":true,"internalType":"uint256"},{"name":"liquidator","type":"address","indexed":true,"internalType":"address"},{"name":"liquidationBonus","type":"uint256","indexed":false,"internalType":"uint256"}],"anonymous":false},{"type":"event","name":"PropertyAdded","inputs":[{"name":"propertyToken","type":"address","indexed":true,"internalType":"address"},{"name":"liquidationThreshold","type":"uint256","indexed":false,"internalType":"uint256"},{"name":"maxLeverage","type":"uint256","indexed":false,"internalType":"uint256"}],"anonymous":false},{"type":"event","name":"SyntheticPositionClosed","inputs":[{"name":"user","type":"address","indexed":true,"internalType":"address"},{"name":"positionId","type":"uint256","indexed":true,"internalType":"uint256"},{"name":"pnl","type":"uint256","indexed":false,"internalType":"uint256"},{"name":"isProfitable","type":"bool","indexed":false,"internalType":"bool"}],"anonymous":false},{"type":"event","name":"SyntheticPositionOpened","inputs":[{"name":"user","type":"address","indexed":true,"internalType":"address"},{"name":"positionId","type":"uint256","indexed":true,"internalType":"uint256"},{"name":"propertyToken","type":"address","indexed":true,"internalType":"address"},{"name":"positionType","type":"uint8","indexed":false,"internalType":"enum SyntheticProperty.PositionType"},{"name":"syntheticAmount","type":"uint256","indexed":false,"internalType":"uint256"},{"name":"collateralAmount","type":"uint256","indexed":false,"internalType":"uint256"},{"name":"leverageRatio","type":"uint256","indexed":false,"internalType":"uint256"}],"anonymous":false},{"type":"event","name":"Transfer","inputs":[{"name":"from","type":"address","indexed":true,"internalType":"address"},{"name":"to","type":"address","indexed":true,"internalType":"address"},{"name":"value","type":"uint256","indexed":false,"internalType":"uint256"}],"anonymous":false},{"type":"event","name":"Unpaused","inputs":[{"name":"account","type":"address","indexed":false,"internalType":"address"}],"anonymous":false},{"type":"error","name":"ERC20InsufficientAllowance","inputs":[{"name":"spender","type":"address","internalType":"address"},{"name":"allowance","type":"uint256","internalType":"uint256"},{"name":"needed","type":"uint256","internalType":"uint256"}]},{"type":"error","name":"ERC20InsufficientBalance","inputs":[{"name":"sender","type":"address","internalType":"address"},{"name":"balance","type":"uint256","internalType":"uint256"},{"name":"needed","type":"uint256","internalType":"uint256"}]},{"type":"error","name":"ERC20InvalidApprover","inputs":[{"name":"approver","type":"address","internalType":"address"}]},{"type":"error","name":"ERC20InvalidReceiver","inputs":[{"name":"receiver","type":"address","internalType":"address"}]},{"type":"error","name":"ERC20InvalidSender","inputs":[{"name":"sender","type":"address","internalType":"address"}]},{"type":"error","name":"ERC20InvalidSpender","inputs":[{"name":"spender","type":"address","internalType":"address"}]},{"type":"error","name":"EnforcedPause","inputs":[]},{"type":"error","name":"ExpectedPause","inputs":[]},{"type":"error","name":"OwnableInvalidOwner","inputs":[{"name":"owner","type":"address","internalType":"address"}]},{"type":"error","name":"OwnableUnauthorizedAccount","inputs":[{"name":"account","type":"address","internalType":"address"}]},{"type":"error","name":"ReentrancyGuardReentrantCall","inputs":[]},{"type":"error","name":"SyntheticProperty__BelowMinimumHealthFactor","inputs":[]},{"type":"error","name":"SyntheticProperty__InsufficientCollateral","inputs":[]},{"type":"error","name":"SyntheticProperty__InvalidLeverageRatio","inputs":[]},{"type":"error","name":"SyntheticProperty__InvalidPropertyToken","inputs":[]},{"type":"error","name":"SyntheticProperty__LiquidationFailed","inputs":[]},{"type":"error","name":"SyntheticProperty__PositionTooSmall","inputs":[]},{"type":"error","name":"SyntheticProperty__TransferFailed","inputs":[]}],"bytecode":{"object":"0x60c0604052346103c35761226180380380610019816103c7565b9283398101906080818303126103c357610032816103ec565b61003e602083016103ec565b60408301519092906001600160401b0381116103c35784610060918301610400565b60608201519094906001600160401b0381116103c3576100809201610400565b83519092906001600160401b0381116102d457600354600181811c911680156103b9575b60208210146102b657601f8111610356575b50602094601f82116001146102f3579481929394955f926102e8575b50508160011b915f199060031b1c1916176003555b82516001600160401b0381116102d457600454600181811c911680156102ca575b60208210146102b657601f8111610253575b506020601f82116001146101f057819293945f926101e5575b50508160011b915f199060031b1c1916176004555b33156101d25760058054336001600160a01b0319821681179092556040519391906001600160a01b03167f8be0079c531659141344cd1fd0a4f28419497f9722a3daafe3b4186f6b6457e05f80a360016006556007805460ff191690556080526001600160a01b031660a052611e0f90816104528239608051816105ca015260a051816112c40152f35b631e4fbdf760e01b5f525f60045260245ffd5b015190505f80610133565b601f1982169060045f52805f20915f5b81811061023b57509583600195969710610223575b505050811b01600455610148565b01515f1960f88460031b161c191690555f8080610215565b9192602060018192868b015181550194019201610200565b60045f527f8a35acfbc15ff81a39ae7d344fd709f28e8600b4aa8c65c6b64bfe7fe36bd19b601f830160051c810191602084106102ac575b601f0160051c01905b8181106102a1575061011a565b5f8155600101610294565b909150819061028b565b634e487b7160e01b5f52602260045260245ffd5b90607f1690610108565b634e487b7160e01b5f52604160045260245ffd5b015190505f806100d2565b601f1982169560035f52805f20915f5b88811061033e57508360019596979810610326575b505050811b016003556100e7565b01515f1960f88460031b161c191690555f8080610318565b91926020600181928685015181550194019201610303565b60035f527fc2575a0e9e593c00f959f8c92f12db2869c3395a3b0502d05e2516446f71f85b601f830160051c810191602084106103af575b601f0160051c01905b8181106103a457506100b6565b5f8155600101610397565b909150819061038e565b90607f16906100a4565b5f80fd5b6040519190601f01601f191682016001600160401b038111838210176102d457604052565b51906001600160a01b03821682036103c357565b81601f820112156103c3578051906001600160401b0382116102d45761042f601f8301601f19166020016103c7565b92828452602083830101116103c357815f9260208093018386015e830101529056fe608080604052600436101561002b575b50361561001a575f80fd5b6100263460105461190a565b601055005b5f3560e01c908163019161691461171857508063031c27ed146115ba57806306fdde03146114ff5780630918eb14146114c7578063095ea7b31461144557806314d651081461140d57806318160ddd146113f05780631de573a6146113d357806323b872dd146112f357806323bfb3ae146112af5780632a6739a2146112925780632e0f262514611277578063313ce5671461125c5780633574d4c4146112405780633f4ba83a146111da57806351d2a3b2146111985780635c975abb146111765780635dcb1835146111535780635e1b4d99146110ac57806370a0823114611075578063715018a61461101a57806376f8996514610e865780638456cb5914610e2d5780638da5cb5b14610e0557806395d89b4114610d055780639b45ec9714610ce95780639d45ac8914610ccd5780639e9da1f614610b4c578063a0da12a514610b2d578063a9059cbb14610afc578063aaf5eb6814610955578063ae690ec21461095a578063b5627e4214610955578063c129d50414610939578063db2b34e7146104ba578063dd62ed3e1461046a578063e24b79a91461044d578063e469f1581461041e578063ea23496c1461037f578063f2fde38b146102f9578063fcb69724146102835763fd319f9f14610205575f61000f565b3461027f57602036600319011261027f576001600160a01b03610226611732565b165f52600b60205260c060405f208054906001810154906002810154600460038301549201549260ff6040519560018060a01b038116875260a01c161515602086015260408501526060840152608083015260a0820152f35b5f80fd5b3461027f57604036600319011261027f576001600160a01b036102a4611732565b165f52600860205260405f206024355f526020526102e16102c760405f2061185c565b80516102db906001600160a01b0316611ba5565b90611c16565b604080519283529015156020830152819081015b0390f35b3461027f57602036600319011261027f57610312611732565b61031a611b5e565b6001600160a01b0316801561036c57600580546001600160a01b0319811683179091556001600160a01b03167f8be0079c531659141344cd1fd0a4f28419497f9722a3daafe3b4186f6b6457e05f80a3005b631e4fbdf760e01b5f525f60045260245ffd5b3461027f57602036600319011261027f5760043561039b611b5e565b6010548082116103d9575f80836103b4829583956118fd565b601055335af16103c2611917565b50156103ca57005b63415e23c360e01b5f5260045ffd5b60405162461bcd60e51b815260206004820152601960248201527f496e73756666696369656e7420706f6f6c2062616c616e6365000000000000006044820152606490fd5b3461027f57604036600319011261027f57602061044561043c611732565b60243590611956565b604051908152f35b3461027f575f36600319011261027f576020601054604051908152f35b3461027f57604036600319011261027f57610483611732565b61048b611748565b6001600160a01b039182165f908152600160209081526040808320949093168252928352819020549051908152f35b608036600319011261027f576104ce611732565b60243590600282101561027f57604435916064356104ea611b85565b6104f2611d5e565b60018060a01b03831693845f52600b60205260405f20604051610514816117dd565b60ff825460018060a01b038116835260a01c161591821560208301526001810154926040830193845260a0600460028401549360608601948552600381015460808701520154930192835261092a576064851090811561091f575b5061091057670de0b6b3a764000061058f61058988611ba5565b856118cc565b049151612710830283810461271014841517156108a457856105b66064936105bb936118df565b6118cc565b6040516315d0e4b560e11b81527f00000000000000000000000000000000000000000000000000000000000000006001600160a01b031660048201529190049060a08160248173__$1f06ac8d622ce42796cee98ba1044ce165$__5af4908115610905575f916108b8575b50670de0b6b3a7640000820291808304670de0b6b3a764000014901517156108a4576402540be4008102908082046402540be40014901517156108a45761066c916118df565b34106108955751811061088657335f52600960205261068f60405f205495611ba5565b9060405161069c816117f9565b87815260208101926106ae8785611850565b604082019385855260608301913483526080840190815260a0840142815260c08501916001835260e08601938a8552335f52600860205260405f208d5f5260205260405f209660018060a01b039060018060a01b03905116166bffffffffffffffffffffffff60a01b88541617875551946002861015610872576107b09860069688549060ff60a01b9060a01b169060ff60a01b1916178855516001880155516002870155516003860155516004850155600584019051151560ff8019835416911617905551910155335f52600960205260405f2061078d81546117cf565b9055335f52600a60205260405f206107a634825461190a565b9055600e5461190a565b600e556107bf34600f5461190a565b600f55331561085f576107d48160025461190a565b600255335f525f60205260405f208181540190556040518181525f7fddf252ad1be2c89b69c2b068fc378daa952ba7f163c4a11628f55a4df523b3ef60203393a361082260405180946117a0565b602083015234604083015260608201527fdc7bb8edc5893c18ff5ca262bb9094862a96b6076b422ffece901f7338b6881160803392a46001600655005b63ec442f0560e01b5f525f60045260245ffd5b634e487b7160e01b5f52602160045260245ffd5b63720bb39760e11b5f5260045ffd5b630d94e0fd60e41b5f5260045ffd5b634e487b7160e01b5f52601160045260245ffd5b905060a0813d60a0116108fd575b816108d360a09383611816565b8101031261027f576108e481611dc2565b506108f6608060208301519201611dc2565b5089610626565b3d91506108c6565b6040513d5f823e3d90fd5b63a76ece2b60e01b5f5260045ffd5b90505184118861056f565b63035499e160e01b5f5260045ffd5b3461027f575f36600319011261027f5760206040516113888152f35b6117ad565b3461027f5760a036600319011261027f57610973611732565b604435602435610981611b5e565b6001600160a01b03831692831561092a57610a33906040516109a2816117dd565b858152600160208083018281526040808501888152606086018a81526064356080880190815260843560a0808a019182525f8f8152600b909852949096209751885495516001600160a81b03199096166001600160a01b03919091161794151590931b60ff60a01b169390931786555193850193909355516002840155905160038301555160049190910155611d79565b15610a6b575b6040907ffa235ae953fe5bc8b7c011a3c99c8e93826fafb04e8dc831cf7516aa4d3a0bb89282519182526020820152a2005b600c549068010000000000000000821015610ae8577ffa235ae953fe5bc8b7c011a3c99c8e93826fafb04e8dc831cf7516aa4d3a0bb892610ab483600160409501600c55611788565b81546001600160a01b0360039290921b91821b19169087901b179055600d54610adc906117cf565b600d5592509050610a39565b634e487b7160e01b5f52604160045260245ffd5b3461027f57604036600319011261027f57610b22610b18611732565b6024359033611ab4565b602060405160018152f35b3461027f575f36600319011261027f5760206040516402540be4008152f35b3461027f57602036600319011261027f57600435610b68611b85565b610b70611d5e565b335f52600860205260405f20815f5260205260405f206005810190815460ff81161561092a578154610c4592610c4f91610bc490610bb6906001600160a01b0316611ba5565b610bbf8361185c565b611c16565b94909560028301908154908189895f14610cae57610be19161190a565b965b60ff19169055335f52600a602052610c0060405f209182546118fd565b9055610c39670de0b6b3a7640000610c306001808060a01b03875416960195610c2a875491611ba5565b906118cc565b04600e546118fd565b600e5554600f546118fd565b600f555433611cda565b80610c92575b5060408051928352901515602083015233917fe6e40296247ae0d40d0f45f6e98a2ad77b043a0f96fdfd72fa6856a41475c26e9190a36001600655005b5f80808093335af1610ca2611917565b50156103ca5783610c55565b818110610cbe5750505f96610be3565b610cc7916118fd565b96610be3565b3461027f575f36600319011261027f5760206040516127108152f35b3461027f575f36600319011261027f5760206040516101f48152f35b3461027f575f36600319011261027f576040515f6004548060011c90600181168015610dfb575b602083108114610de757828552908115610dc35750600114610d65575b6102f583610d5981850382611816565b6040519182918261175e565b91905060045f527f8a35acfbc15ff81a39ae7d344fd709f28e8600b4aa8c65c6b64bfe7fe36bd19b915f905b808210610da957509091508101602001610d59610d49565b919260018160209254838588010152019101909291610d91565b60ff191660208086019190915291151560051b84019091019150610d599050610d49565b634e487b7160e01b5f52602260045260245ffd5b91607f1691610d2c565b3461027f575f36600319011261027f576005546040516001600160a01b039091168152602090f35b3461027f575f36600319011261027f57610e45611b5e565b610e4d611d5e565b600160ff1960075416176007557f62e78cea01bee320cd4e420270b5ea74000d11b0c9f74754ebdbfc544b05a2586020604051338152a1005b3461027f57604036600319011261027f57610e9f611732565b602435610eaa611b85565b60018060a01b038216805f52600860205260405f20825f5260205260405f20600581019360ff8554161561092a57670de0b6b3a7640000610eeb8583611956565b101561100b578154610f1290610f09906001600160a01b0316611ba5565b610bbf8461185c565b509160028101958654966103e88802918883046103e814891517156108a457610f8795612710610f7d9404998a918082115f1461100357610f52916118fd565b818111610fe4575b505060ff1981541690558054865f52600a602052610c0060405f209182546118fd565b600f555490611cda565b82610fc0575b6040519283527f925d308fbed607657f53f02c6ec1cfe8df196226786b72cbd8522e6f7f305ac260203394a46001600655005b5f80808086335af1610fd0611917565b50610f8d576314369cc160e11b5f5260045ffd5b610ff991610ff1916118fd565b60105461190a565b601055888a610f5a565b50505f610f52565b6390a3c32160e01b5f5260045ffd5b3461027f575f36600319011261027f57611032611b5e565b600580546001600160a01b031981169091555f906001600160a01b03167f8be0079c531659141344cd1fd0a4f28419497f9722a3daafe3b4186f6b6457e08280a3005b3461027f57602036600319011261027f576001600160a01b03611096611732565b165f525f602052602060405f2054604051908152f35b3461027f57604036600319011261027f576001600160a01b036110cd611732565b165f52600860205260405f206024355f5260205261010060405f2080549060018101549060028101546003820154600483015491600660ff600586015416940154946111316040519760018060a01b038116895260ff60208a019160a01c166117a0565b60408701526060860152608085015260a0840152151560c083015260e0820152f35b3461027f575f36600319011261027f57602060405168056bc75e2d631000008152f35b3461027f575f36600319011261027f57602060ff600754166040519015158152f35b3461027f57602036600319011261027f57600435600c5481101561027f576111c1602091611788565b905460405160039290921b1c6001600160a01b03168152f35b3461027f575f36600319011261027f576111f2611b5e565b60075460ff8116156112315760ff19166007557f5db9ee0a495bf2e6ff9c91a7834c1ba4fdd244a5e8aa4e537bd38aeae4b073aa6020604051338152a1005b638dfc202b60e01b5f5260045ffd5b3461027f575f36600319011261027f5760206040516103e88152f35b3461027f575f36600319011261027f57602060405160128152f35b3461027f575f36600319011261027f57602060405160088152f35b3461027f575f36600319011261027f576020600f54604051908152f35b3461027f575f36600319011261027f576040517f00000000000000000000000000000000000000000000000000000000000000006001600160a01b03168152602090f35b3461027f57606036600319011261027f5761130c611732565b611314611748565b6001600160a01b0382165f818152600160208181526040808420338552909152909120549193604435939290918101611353575b50610b229350611ab4565b8381106113b85784156113a557331561139257610b22945f52600160205260405f2060018060a01b0333165f526020528360405f209103905584611348565b634a1406b160e11b5f525f60045260245ffd5b63e602df0560e01b5f525f60045260245ffd5b8390637dc7a0d960e11b5f523360045260245260445260645ffd5b3461027f575f36600319011261027f576020600d54604051908152f35b3461027f575f36600319011261027f576020600254604051908152f35b3461027f57602036600319011261027f576001600160a01b0361142e611732565b165f52600a602052602060405f2054604051908152f35b3461027f57604036600319011261027f5761145e611732565b6024359033156113a5576001600160a01b031690811561139257335f52600160205260405f20825f526020528060405f20556040519081527f8c5be1e5ebec7d5bd14f71427d1e84f3dd0314c0f7b2291e5b200ac8c7c3b92560203392a3602060405160018152f35b3461027f57602036600319011261027f576001600160a01b036114e8611732565b165f526009602052602060405f2054604051908152f35b3461027f575f36600319011261027f576040515f6003548060011c906001811680156115b0575b602083108114610de757828552908115610dc35750600114611552576102f583610d5981850382611816565b91905060035f527fc2575a0e9e593c00f959f8c92f12db2869c3395a3b0502d05e2516446f71f85b915f905b80821061159657509091508101602001610d59610d49565b91926001816020925483858801015201910190929161157e565b91607f1691611526565b3461027f57602036600319011261027f576115d3611732565b6001600160a01b03165f818152600960205260408120549091825b8281106116da575061161861160284611838565b936116106040519586611816565b808552611838565b602084019290601f19013684375f915f5b828110611674578486604051918291602083019060208452518091526040830191905f5b81811061165b575050500390f35b825184528594506020938401939092019160010161164d565b815f52600860205260405f20815f5260205260ff600560405f2001541661169e575b600101611629565b9285518110156116c6576116be8185602060019460051b8a0101526117cf565b939050611696565b634e487b7160e01b5f52603260045260245ffd5b815f52600860205260405f20815f5260205260ff600560405f20015416611704575b6001016115ee565b926117106001916117cf565b9390506116fc565b3461027f575f36600319011261027f57602090600e548152f35b600435906001600160a01b038216820361027f57565b602435906001600160a01b038216820361027f57565b602060409281835280519182918282860152018484015e5f828201840152601f01601f1916010190565b600c548110156116c657600c5f5260205f2001905f90565b9060028210156108725752565b3461027f575f36600319011261027f576020604051670de0b6b3a76400008152f35b5f1981146108a45760010190565b60c0810190811067ffffffffffffffff821117610ae857604052565b610100810190811067ffffffffffffffff821117610ae857604052565b90601f8019910116810190811067ffffffffffffffff821117610ae857604052565b67ffffffffffffffff8111610ae85760051b60200190565b60028210156108725752565b90604051611869816117f9565b60e06006829461188e60ff825460018060a01b038116875260a01c1660208601611850565b600181015460408501526002810154606085015260038101546080850152600481015460a085015260ff600582015416151560c08501520154910152565b818102929181159184041417156108a457565b81156118e9570490565b634e487b7160e01b5f52601260045260245ffd5b919082039182116108a457565b919082018092116108a457565b3d15611951573d9067ffffffffffffffff8211610ae85760405191611946601f8201601f191660200184611816565b82523d5f602084013e565b606090565b60018060a01b03165f52600860205260405f20905f5260205261197b60405f2061185c565b60c081015115611aaf5780516119a39061199d906001600160a01b0316611ba5565b82611c16565b906060830151911580611aa6575b611a80575b50611a5161271091670de0b6b3a76400006119e260018060a01b03865116610c2a604088015191611ba5565b049360018060a01b039051165f52600b60205260405f2090604051611a06816117dd565b82546001600160a01b038116825260a090811c60ff161515602083015260018401546040830181905260028501546060840152600385015460808401526004909401549101526118cc565b0490670de0b6b3a7640000820291808304670de0b6b3a764000014901517156108a457611a7d916118df565b90565b81811015611a9f57611a98611a5191612710936118fd565b91506119b6565b5050505f90565b508015156119b1565b505f90565b6001600160a01b0316908115611b4b576001600160a01b031691821561085f57815f525f60205260405f2054818110611b3257817fddf252ad1be2c89b69c2b068fc378daa952ba7f163c4a11628f55a4df523b3ef92602092855f525f84520360405f2055845f525f825260405f20818154019055604051908152a3565b8263391434e360e21b5f5260045260245260445260645ffd5b634b637e8f60e11b5f525f60045260245ffd5b6005546001600160a01b03163303611b7257565b63118cdaa760e01b5f523360045260245ffd5b600260065414611b96576002600655565b633ee5aeb560e01b5f5260045ffd5b604051631afaeb8160e11b815290602090829060049082906001600160a01b03165afa5f9181611be2575b50611a7d5750670de0b6b3a764000090565b9091506020813d602011611c0e575b81611bfe60209383611816565b8101031261027f5751905f611bd0565b3d9150611bf1565b906020820151600281101561087257611ca357608082019081518082115f14611c895750611c459151906118fd565b906080611c67611c5c6001945b60408501516118cc565b60e0840151906118cc565b9101516064810290808204606414901517156108a457611c86916118df565b91565b611c9392506118fd565b906080611c67611c5c5f94611c52565b608082019081518082105f14611ccf5750611cbe91516118fd565b906080611c67611c5c600194611c52565b90611c9392506118fd565b9091906001600160a01b03168015611b4b57805f525f60205260405f2054838110611d44576020845f94957fddf252ad1be2c89b69c2b068fc378daa952ba7f163c4a11628f55a4df523b3ef938587528684520360408620558060025403600255604051908152a3565b915063391434e360e21b5f5260045260245260445260645ffd5b60ff60075416611d6a57565b63d93c066560e01b5f5260045ffd5b600c54905f5b828110611d8d575050505f90565b611d9681611788565b905460039190911b1c6001600160a01b0390811690831614611dba57600101611d7f565b505050600190565b519069ffffffffffffffffffff8216820361027f5756fea2646970667358221220bd8ce7e92bb701d04d90b53a9adcc18d1a15039296cc2d69ec8129fc41e4d53d64736f6c634300081e0033","linkReferences":{"src/libraries/OracleLib.sol":{"OracleLib":[{"start":2645,"length":20}]}}},"methodIdentifiers":{"ADDITIONAL_FEED_PRECISION()":"a0da12a5","DECIMALS()":"2e0f2625","DEFAULT_LIQUIDATION_THRESHOLD()":"c129d504","LIQUIDATION_BONUS()":"3574d4c4","LIQUIDATION_PRECISION()":"9d45ac89","MAX_LEVERAGE()":"9b45ec97","MIN_HEALTH_FACTOR()":"b5627e42","MIN_POSITION_USD()":"5dcb1835","PRECISION()":"aaf5eb68","addSupportedProperty(address,uint256,uint256,uint256,uint256)":"ae690ec2","allowance(address,address)":"dd62ed3e","approve(address,uint256)":"095ea7b3","balanceOf(address)":"70a08231","closeSyntheticPosition(uint256)":"9e9da1f6","decimals()":"313ce567","getPositionHealthFactor(address,uint256)":"e469f158","getPositionPnL(address,uint256)":"fcb69724","getUserActivePositions(address)":"031c27ed","i_mainPropertyToken()":"23bfb3ae","liquidatePosition(address,uint256)":"76f89965","liquidationPool()":"e24b79a9","name()":"06fdde03","openSyntheticPosition(address,uint8,uint256,uint256)":"db2b34e7","owner()":"8da5cb5b","pause()":"8456cb59","paused()":"5c975abb","propertyList(uint256)":"51d2a3b2","renounceOwnership()":"715018a6","supportedProperties(address)":"fd319f9f","symbol()":"95d89b41","totalCollateralValue()":"2a6739a2","totalSupply()":"18160ddd","totalSupportedProperties()":"1de573a6","totalSyntheticValue()":"01916169","transfer(address,uint256)":"a9059cbb","transferFrom(address,address,uint256)":"23b872dd","transferOwnership(address)":"f2fde38b","unpause()":"3f4ba83a","userPositionCount(address)":"0918eb14","userPositions(address,uint256)":"5e1b4d99","userTotalCollateral(address)":"14d65108","withdrawLiquidationPool(uint256)":"ea23496c"},"id":57}